:100000000C94F6000C9413010C9413010C9413013E
:100010000C9413010C9413010C9413010C94130110
:100020000C9413010C9413010C9413010C94130100
:100030000C9413010C9413010C9413010C941301F0
:100040000C9413010C9413010C9413010C941301E0
:100050000C9413010C9413010C9413010C941301D0
:100060000C9413010C9413010C9413010C941301C0
:1000700000000000005C00000C000C007C287C28C4
:1000800058DC68002410480028542840000C000068
:10009000007884008478000054385400107C1000EC
:1000A00080400000101010000040000060100C00A4
:1000B00038543800487C40004864580044542C00B0
:1000C0001C107C005C5424003854240064140C0080
:1000D00068542C0048543800004800008048000054
:1000E0001028440028282800442810000454080040
:1000F00038445C00781478007C5428003844280088
:100100007C4438007C5444007C140400384474005F
:100110007C107C00447C440020403C007C106C003F
:100120007C4040007C187C0078103C00384438004B
:100130007C1408003844B8007C146800485424003B
:10014000047C04007C407C003C603C007C307C00F3
:100150006C106C000C700C0064544C00007C44006B
:100160000C106000447C00000804080080808000BF
:1001700000040800304878007C48300030484800CF
:1001800030487C00306850001078140090A8780047
:100190007C08700050744000808074007C106800FF
:1001A000447C4000781078007808700030483000B7
:1001B000F82810003048F80078100800505828003F
:1001C000083C4800384078003840380078207800F3
:1001D0004830480098A0780048685800107884009B
:1001E000007C0000847810000804080411241FBE5D
:1001F000CFEFD4E0DEBFCDBF11E0A0E0B1E0EAE791
:10020000F8E002C005900D92AA34B107D9F721E0B9
:10021000AAE4B1E001C01D92A435B207E1F70E9443
:1002200015010C943B040C94000065E772E081E733
:1002300092E00E94A0038FE190E00E946A0285B7DD
:10024000806885BF0E942F010E948C0164E182E0DA
:100250000E947F010E94D4010E942002FFCFE0E0B3
:10026000F0E18EEA808381EA80838AED808382E1F7
:10027000808388EC808388EA80838FE3808385EDA8
:10028000808380E8808381E8808380E5808389EDB6
:10029000808381E2808380E2808310828BED808383
:1002A00080E380838DEA8083108284EA808386EAFB
:1002B00080838FEA808380E092E0E0E0F2E12FEF3C
:1002C000208301970097E1F70895E0E0F0E192E2E2
:1002D0009083808387E0808308950E946501E0E039
:1002E000F0E181E2808310828FE7808380E890E0F4
:1002F000E0E0F2E1108201970097E1F70895E0E075
:10030000F0E192E29083808387E0808381E28083C2
:1003100060838FE780830895CF93C0E08C2F0E9485
:100320006D01CF5FC830D1F760E080E00E947F01AF
:10033000CF910895CF93DF93FC012081222311F107
:10034000DC0140E060E050E0C0E0D2E118C0EC9198
:10035000F0E0EE0FFF1FEE0FFF1FE051F040E20F45
:10036000F31FE491E8832F5F3F4F2430310579F785
:100370004F5FDC01A40FB11D2C91222319F0262F11
:10038000352FE5CFDF91CF910895CF93DF93EC0127
:1003900084E190E00E947902FC01D183C083138242
:1003A0001282DF91CF910895AF92BF92CF92DF92E8
:1003B000EF92FF920F931F93CF93DF9386E091E02C
:1003C0000E94C501EC0180E191E00E94C5016C0131
:1003D0008BE191E00E94C5015C018AE291E00E94FC
:1003E000C5018C0184E391E00E94C5017C018EE38C
:1003F00091E00E94C501F601D383C283F501D38346
:10040000C283F701D383C283FC01D383C283F80183
:10041000D383C283BF82AE82D986C8869B878A87F0
:10042000FD86EC861F870E87CE01DF91CF911F914D
:100430000F91FF90EF90DF90CF90BF90AF90089515
:10044000CF93DF93EC0162E380E00E947F0188811B
:1004500099810E949A01888199810E94EB0362E34D
:1004600081E00E947F01EE81FF81808191810E9465
:100470009A01EE81FF81808191810E94EB0362E30A
:1004800082E00E947F01E885F985808191810E9448
:100490009A0162E383E00E947F01EA85FB85808107
:1004A00091810E949A0162E384E00E947F01EC85C1
:1004B000FD85808191810E949A0162E385E00E941E
:1004C0007F01EE85FF85808191810E949A01DF91F5
:1004D000CF91089590BD89B988E18AB98EE880BD31
:1004E00008955D9BFECF8CB908955F9BFECF8CB1C4
:1004F0000895CF93DF938230910510F482E090E06D
:10050000E0914C01F0914D0120E030E0A0E0B0E03E
:10051000309739F14081518148175907B8F0481791
:10052000590771F482819381109729F013969C9357
:100530008E9312972CC090934D0180934C0127C04D
:100540002115310531F04217530718F0A901DB01DD
:1005500001C0EF019A01BD01DF010280F381E02DAE
:10056000D7CF21153105F9F0281B390B243031057F
:1005700080F48A819B816115710521F0FB019383D1
:10058000828304C090934D0180934C01FE0132960A
:1005900044C0FE01E20FF31F819391932250310971
:1005A000398328833AC020914A0130914B01232B93
:1005B00041F4209102013091030130934B012093CB
:1005C0004A0120910001309101012115310541F4CA
:1005D0002DB73EB74091040150910501241B350B06
:1005E000E0914A01F0914B01E217F307A0F42E1BB2
:1005F0003F0B2817390778F0AC014E5F5F4F241787
:10060000350748F04E0F5F1F50934B0140934A014E
:100610008193919302C0E0E0F0E0CF01DF91CF91B0
:100620000895CF93DF93009709F487C0FC013297B8
:1006300013821282C0914C01D0914D01209781F418
:1006400020813181280F391F80914A0190914B01FF
:100650008217930779F5F0934B01E0934A016DC03F
:10066000DE0120E030E0AE17BF0750F412964D9146
:100670005C9113979D014115510509F1DA01F3CF02
:10068000B383A28340815181840F951F8A179B07F2
:1006900071F48D919C911197840F951F029691830F
:1006A000808312968D919C91139793838283211559
:1006B000310529F4F0934D01E0934C013EC0D9017E
:1006C0001396FC93EE9312974D915D91A40FB51F75
:1006D000EA17FB0779F480819181840F951F0296B8
:1006E000D90111969C938E938281938113969C934A
:1006F0008E931297E0E0F0E08A819B81009719F0D9
:10070000FE01EC01F9CFCE01029628813981820FDA
:10071000931F20914A0130914B012817390769F442
:10072000309729F410924D0110924C0102C01382AF
:100730001282D0934B01C0934A01DF91CF9108956B
:100740000F931F93CF93DF93EC018B01009731F44C
:100750006115710519F480E090E038C06EE070E03A
:1007600081E090E00E941804FC010097A1F380E86A
:1007700083830115110571F01387028781E8838354
:1007800080914E0190914F01892B21F4F0934F01FC
:10079000E0934E012097C9F0D187C08783818260A2
:1007A00083838091500190915101892B71F4F093D2
:1007B0005101E09350018091520190915301892B96
:1007C00021F4F0935301E0935201CF01DF91CF91D7
:1007D0001F910F9108950F931F93CF93DF93E09193
:1007E0005001F0915101238121FF1BC0EC0100E079
:1007F00010E089916091500170915101DB011896D0
:10080000ED91FC911997882331F00995892B89F393
:100810000FEF1FEFEECF8AE00995892B11F4C80185
:1008200002C08FEF9FEFDF91CF911F910F9108953D
:100830000F931F93CF93DF93869F8001879F100DA7
:10084000969F100D1124C8010E947902EC010097B7
:1008500029F0A80160E070E00E943404CE01DF912D
:10086000CF911F910F910895DC0101C06D9341500C
:0A0870005040E0F70895F894FFCF20
:10087A000000540120004D61696E206D656E75009F
:10088A004869676873636F72657300537461727441
:10089A00206E65772067616D6500446562756767DC
:1008AA00696E670043616C696272617465004469CC
:0A08BA0066666963756C74790000CE
:00000001FF
