:100000000C94F6000C9413010C9413010C9413013E
:100010000C9413010C9413010C9413010C94130110
:100020000C9413010C9413010C9413010C94130100
:100030000C9413010C9413010C9413010C941301F0
:100040000C9413010C9413010C9413010C941301E0
:100050000C9413010C9413010C9413010C941301D0
:100060000C9413010C9413010C9413010C941301C0
:1000700000000000005C00000C000C007C287C28C4
:1000800058DC68002410480028542840000C000068
:10009000007884008478000054385400107C1000EC
:1000A00080400000101010000040000060100C00A4
:1000B00038543800487C40004864580044542C00B0
:1000C0001C107C005C5424003854240064140C0080
:1000D00068542C0048543800004800008048000054
:1000E0001028440028282800442810000454080040
:1000F00038445C00781478007C5428003844280088
:100100007C4438007C5444007C140400384474005F
:100110007C107C00447C440020403C007C106C003F
:100120007C4040007C187C0078103C00384438004B
:100130007C1408003844B8007C146800485424003B
:10014000047C04007C407C003C603C007C307C00F3
:100150006C106C000C700C0064544C00007C44006B
:100160000C106000447C00000804080080808000BF
:1001700000040800304878007C48300030484800CF
:1001800030487C00306850001078140090A8780047
:100190007C08700050744000808074007C106800FF
:1001A000447C4000781078007808700030483000B7
:1001B000F82810003048F80078100800505828003F
:1001C000083C4800384078003840380078207800F3
:1001D0004830480098A0780048685800107884009B
:1001E000007C0000847810000804080411241FBE5D
:1001F000CFEFD4E0DEBFCDBF12E0A0E0B1E0E4E499
:10020000F4E102C005900D92A833B107D9F722E0BE
:10021000A8E3B2E001C01D92A234B207E1F70E9448
:10022000D8010C94200A0C940000823069F018F474
:10023000813031F014C0833059F0843069F00FC040
:1002400084E0809300140BC085E08093001407C005
:1002500086E08093001403C087E0809300142CECA8
:100260008CE091E0215080409040E1F700C0809107
:1002700000140895BA9888B3847088BB08958F5786
:100280009109BC01882777FD8095982F0E949004E2
:1002900020E030E04EEF52E40E94F50320E030E031
:1002A00048EC52E40E941C050E947F050E945D04F8
:1002B000CB010895FF920F931F93CF93DF93CDB798
:1002C000DEB728970FB6F894DEBF0FBECDBF81E032
:1002D0000E941501F82E82E00E94150190E00E9414
:1002E0003F01182F092F8F2D90E00E943F011983A5
:1002F0000A838B839C83212F302F482F592F6D81A8
:100300007E818F81988528960FB6F894DEBF0FBE48
:10031000CDBFDF91CF911F910F91FF900895CF93A3
:10032000DF93CDB7DEB728970FB6F894DEBF0FBEC8
:10033000CDBF0E945A0129833A834B835C83298174
:100340003A818B819C81AC01485E5F4F41335105FE
:1003500048F4273E8FEF380794F02A3131058CF4AA
:1003600080E016C0285E3F4F2133310560F4873EA0
:100370002FEF920754F04A9754F480E009C081E0CF
:1003800007C082E005C080E003C084E001C083E0D4
:1003900028960FB6F894DEBF0FBECDBFDF91CF9188
:1003A000089586B382FB882780F991E08927089514
:1003B00085B7806885BF61EF73E08DEE93E00E94A2
:1003C000EF068FE190E00E94E6030E94C4020E94C3
:1003D0003A010E94DD030E9489020E94B60264E194
:1003E00082E00E94A9020E9459030E949D0361E4D9
:1003F0008FE00E94460280EA0E9433021F928F9390
:1004000086E091E09F938F930E943A070F900F90A0
:100410000F900F90C1E001E017E00E948F01833040
:1004200029F4C13051F0DFEFDC0F0CC0843039F417
:10043000C73039F0D1E0DC0F05C0D12F03C0DC2F6D
:1004400001C0D02F24E14C2F64E18D2F0E94340392
:100450000E94D101CD2FE1CFC49880EC90E00E94A2
:10046000E203C49A0895CF93C82FC49883E090E024
:100470000E94E2038C2F90E00E94E20380E090E073
:100480000E94E2038FB1C49ACF910895CF93DF9376
:10049000D82FC62FC49882E090E00E94E2038D2FEF
:1004A00090E00E94E2038C2F90E00E94E203C49A45
:1004B000DF91CF9108951F93CF93DF93182FD62FFD
:1004C000C42FC49885E090E00E94E203812F90E061
:1004D0000E94E2038D2F90E00E94E2038C2F90E0B7
:1004E0000E94E203C49ADF91CF911F910895803456
:1004F00041F0803621F0803231F040E005C040E626
:1005000003C040E401C040E260EE8FE00E945B0265
:1005100008950E942C0280E40E9477020895E0E092
:10052000F0E192E29083808387E0808308950E94C7
:100530008F02E0E0F0E181E2808310828FE7808328
:1005400080E890E0E0E0F2E1108201970097E1F7A7
:100550000895E0E0F0E192E29083808387E0808379
:1005600081E2808360838FE780830895CF93C0E02A
:100570008C2F0E949702CF5FC830D1F760E080E0F7
:100580000E94A902CF910895E0E0F0E18EEA808315
:1005900081EA80838AED808382E1808388EC808396
:1005A00088EA80838FE3808385ED808380E8808381
:1005B00081E8808380E5808389ED808381E2808388
:1005C00080E2808310828BED808380E380838DEADC
:1005D0008083108284EA808386EA80838FEA808326
:1005E00080E092E0E0E0F2E12FEF208301970097B6
:1005F000E1F70E94B6020895CF93DF93FC012081BA
:10060000222311F1DC0140E060E050E0C0E0D2E1E3
:1006100018C0EC91F0E0EE0FFF1FEE0FFF1FE0514E
:10062000F040E20FF31FE491E8832F5F3F4F243047
:10063000310579F74F5FDC01A40FB11D2C91222306
:1006400019F0262F352FE5CFDF91CF9108950E9425
:10065000A902E0E0F2E188E1808380839EE7908355
:100660009CE3908380830895CF93DF93C82FD62F88
:10067000842F622F0E94A902E0E0F2E11082108232
:100680001082108210826D2F8C2F0E942703DF9121
:10069000CF910895CF93DF93EC0184E190E00E9425
:1006A000C805FC01D183C08313821282DF91CF91F0
:1006B0000895AF92BF92CF92DF92EF92FF920F9385
:1006C0001F93CF93DF9360E070E085EF91E00E948D
:1006D0004A03EC01BC018FEF91E00E944A036C01D8
:1006E000BE018AE092E00E944A035C01BE0189E1FA
:1006F00092E00E944A038C01BE0183E292E00E94D4
:100700004A037C01BE018DE292E00E944A03BF824F
:10071000AE82D986C8869B878A87FD86EC861F872E
:100720000E87CE01DF91CF911F910F91FF90EF9037
:10073000DF90CF90BF90AF900895CF93DF93EC01FF
:1007400062E380E00E94A902888199810E94FC02F4
:1007500062E381E00E94A902EE81FF8180819181A4
:100760000E94FC0262E382E00E94A902E885F9850A
:10077000808191810E94FC0262E383E00E94A902D1
:10078000EA85FB85808191810E94FC0262E384E01E
:100790000E94A902EC85FD85808191810E94FC0266
:1007A00062E385E00E94A902EE85FF858081918148
:1007B0000E94FC02DF91CF91089580EB87BB81E519
:1007C0008DB908958FB9779BFECF089590BD89B9F3
:1007D00088E18AB98EE880BD08955D9BFECF8CB913
:1007E00008955F9BFECF8CB108950CD0EBC0E3D091
:1007F00040F0DAD030F021F45F3F19F0CCC0511155
:1008000015C1CFC0F0D098F39923C9F35523B1F3A4
:10081000951B550BBB27AA2762177307840738F06F
:100820009F5F5F4F220F331F441FAA1FA9F333D0CE
:100830000E2E3AF0E0E830D091505040E695001C82
:10084000CAF729D0FE2F27D0660F771F881FBB1F3E
:10085000261737074807AB07B0E809F0BB0B802D18
:10086000BF01FF2793585F4F2AF09E3F510568F064
:1008700092C0DCC05F3FECF3983EDCF38695779541
:100880006795B795F7959F5FC9F7880F911D969566
:10089000879597F90895E1E0660F771F881FBB1FC2
:1008A000621773078407BA0720F0621B730B840B6F
:1008B000BA0BEE1F88F7E095089504D06894B11143
:1008C000B5C0089598D088F09F5790F0B92F992718
:1008D000B751A0F0D1F0660F771F881F991F1AF04B
:1008E000BA95C9F712C0B13081F09FD0B1E0089538
:1008F0009CC0672F782F8827B85F39F0B93FCCF3B9
:10090000869577956795B395D9F73EF49095809540
:10091000709561957F4F8F4F9F4F0895E89409C060
:1009200097FB3EF490958095709561957F4F8F4F22
:100930009F4F9923A9F0F92F96E9BB279395F69538
:10094000879577956795B795F111F8CFFAF4BB0FB6
:1009500011F460FF1BC06F5F7F4F8F4F9F4F16C01A
:10096000882311F096E911C0772321F09EE8872FA4
:10097000762F05C0662371F096E8862F70E060E060
:100980002AF09A95660F771F881FDAF7880F9695D9
:10099000879597F9089597F99F6780E870E060E080
:1009A00008959FEF80EC089500240A941616170608
:1009B00018060906089500240A9412161306140650
:1009C00005060895092E0394000C11F4882352F0B3
:1009D000BB0F40F4BF2B11F460FF04C06F5F7F4F6B
:1009E0008F4F9F4F089557FD9058440F551F59F052
:1009F0005F3F71F04795880F97FB991F61F09F3F0C
:100A000079F087950895121613061406551FF2CF34
:100A10004695F1DF08C0161617061806991FF1CF84
:100A200086957105610508940895E894BB276627AB
:100A30007727CB0197F908950BD0C4CFB5DF28F005
:100A4000BADF18F0952309F0A6CFABCF1124EECF73
:100A5000CADFA0F3959FD1F3950F50E0551F629F19
:100A6000F001729FBB27F00DB11D639FAA27F00D07
:100A7000B11DAA1F649F6627B00DA11D661F829F2E
:100A80002227B00DA11D621F739FB00DA11D621F13
:100A9000839FA00D611D221F749F3327A00D611D30
:100AA000231F849F600D211D822F762F6A2F112412
:100AB0009F5750408AF0E1F088234AF0EE0FFF1F65
:100AC000BB1F661F771F881F91505040A9F79E3F9C
:100AD000510570F060CFAACF5F3FECF3983EDCF396
:100AE000869577956795B795F795E7959F5FC1F7D9
:100AF000FE2B880F911D9695879597F908957BDFBA
:100B0000E0F09E37D8F09639B8F49E3848F4672F55
:100B1000782F8827985FF9CF869577956795939575
:100B20009539D0F3B62FB1706B0F711D811D20F474
:100B3000879577956795939502C01CC077CF8823DA
:100B400071F4772321F09850872B762F07C0662306
:100B500011F499270DC09051862B70E060E02AF0C7
:100B60009A95660F771F881FDAF7880F96958795F5
:100B700097F908959F3F31F0915020F4879577952C
:100B80006795B795880F911D9695879597F9089564
:100B9000CF93DF938230910510F482E090E0E091F2
:100BA0003A02F0913B0220E030E0A0E0B0E0309764
:100BB00039F14081518148175907B8F04817590752
:100BC00071F482819381109729F013969C938E93F0
:100BD00012972CC090933B0280933A0227C02115B4
:100BE000310531F04217530718F0A901DB0101C0AC
:100BF000EF019A01BD01DF010280F381E02DD7CF23
:100C000021153105F9F0281B390B2430310580F40A
:100C10008A819B816115710521F0FB019383828399
:100C200004C090933B0280933A02FE01329644C086
:100C3000FE01E20FF31F8193919322503109398312
:100C400028833AC02091380230913902232B41F495
:100C50002091020130910301309339022093380230
:100C600020910001309101012115310541F42DB78A
:100C70003EB74091040150910501241B350BE091D2
:100C80003802F0913902E217F307A0F42E1B3F0B54
:100C90002817390778F0AC014E5F5F4F24173507EE
:100CA00048F04E0F5F1F50933902409338028193F2
:100CB000919302C0E0E0F0E0CF01DF91CF91089581
:100CC000CF93DF93009709F487C0FC01329713821A
:100CD0001282C0913A02D0913B02209781F4208188
:100CE0003181280F391F8091380290913902821783
:100CF000930779F5F0933902E09338026DC0DE0175
:100D000020E030E0AE17BF0750F412964D915C9191
:100D100013979D014115510509F1DA01F3CFB38312
:100D2000A28340815181840F951F8A179B0771F41C
:100D30008D919C911197840F951F029691838083CA
:100D400012968D919C91139793838283211531057F
:100D500029F4F0933B02E0933A023EC0D901139686
:100D6000FC93EE9312974D915D91A40FB51FEA1776
:100D7000FB0779F480819181840F951F0296D90138
:100D800011969C938E938281938113969C938E935C
:100D90001297E0E0F0E08A819B81009719F0FE0154
:100DA000EC01F9CFCE01029628813981820F931F81
:100DB00020913802309139022817390769F43097A9
:100DC00029F410923B0210923A0202C0138212825E
:100DD000D0933902C0933802DF91CF9108950F93D9
:100DE0001F93CF93DF93EC018B01009731F46115D2
:100DF000710519F480E090E038C06EE070E081E0A9
:100E000090E00E942009FC010097A1F380E8838311
:100E10000115110571F01387028781E883838091A2
:100E20003C0290913D02892B21F4F0933D02E09326
:100E30003C022097C9F0D187C08783818260838379
:100E400080913E0290913F02892B71F4F0933F0212
:100E5000E0933E028091400290914102892B21F45F
:100E6000F0934102E0934002CF01DF91CF911F91B7
:100E70000F910895A0E0B0E0E0E4F7E00C94F909E8
:100E8000FE01359661917191AF0180913E02909182
:100E90003F020E944E07E2E00C94150AACE0B0E07D
:100EA000E4E5F7E00C94E9097C016B018A01FC019F
:100EB00017821682838181FFBDC1CE0101964C014C
:100EC000F7019381F60193FD859193FF81916F0165
:100ED000882309F4ABC1853239F493FD859193FFE2
:100EE00081916F01853229F4B70190E00E94590980
:100EF000E7CF512C312C20E02032A0F48B3269F066
:100F000030F4803259F0833269F420612CC08D3284
:100F100039F0803339F4216026C02260246023C078
:100F2000286021C027FD27C030ED380F3A3078F413
:100F300026FF06C0FAE05F9E300D1124532E13C029
:100F40008AE0389E300D1124332E20620CC08E3280
:100F500021F426FD6BC1206406C08C3611F4206894
:100F600002C0883641F4F60193FD859193FF81918B
:100F70006F018111C1CF982F9F7D9554933028F434
:100F80000C5F1F4FFFE3F9830DC0833631F08337C9
:100F900071F0833509F05BC022C0F801808189833C
:100FA0000E5F1F4F44244394512C540115C0380147
:100FB000F2E06F0E711CF801A080B18026FF03C023
:100FC000652D70E002C06FEF7FEFC5012C870E9496
:100FD0004E092C0183012C852F77222E17C0380152
:100FE000F2E06F0E711CF801A080B18026FF03C0F3
:100FF000652D70E002C06FEF7FEFC5012C870E9466
:101000003C092C012C852068222E830123FC1BC067
:10101000832D90E048165906B0F4B70180E290E0C5
:101020000E9459093A94F4CFF50127FC859127FED7
:1010300081915F01B70190E00E94590931103A9403
:10104000F1E04F1A51084114510471F7E5C084369C
:1010500011F0893639F5F80127FF07C060817181E9
:10106000828193810C5F1F4F08C060817181882746
:1010700077FD8095982F0E5F1F4F2F76B22E97FF2A
:1010800009C090958095709561957F4F8F4F9F4FC8
:101090002068B22E2AE030E0A4010E948B09A82E1D
:1010A000A81844C0853729F42F7EB22E2AE030E0FC
:1010B00025C0F22FF97FBF2E8F36C1F018F4883586
:1010C00079F0B4C0803719F0883721F0AFC02F2FE6
:1010D0002061B22EB4FE0DC08B2D8460B82E09C0E5
:1010E00024FF0AC09F2F9660B92E06C028E030E08A
:1010F00005C020E130E002C020E132E0F801B7FE97
:1011000007C060817181828193810C5F1F4F06C08F
:101110006081718180E090E00E5F1F4FA4010E940A
:101120008B09A82EA818FB2DFF77BF2EB6FE0BC08B
:101130002B2D2E7FA51450F4B4FE0AC0B2FC08C0BB
:101140002B2D2E7E05C07A2C2B2D03C07A2C01C0AE
:10115000752C24FF0DC0FE01EA0DF11D8081803346
:1011600011F4297E09C022FF06C07394739404C051
:10117000822F867809F0739423FD13C020FF06C0E8
:101180005A2C731418F4530C5718732C731468F4F6
:10119000B70180E290E02C870E94590973942C8556
:1011A000F5CF731410F4371801C0312C24FF12C08E
:1011B000B70180E390E02C870E9459092C8522FF1B
:1011C00017C021FF03C088E590E002C088E790E0E7
:1011D000B7010CC0822F867859F021FD02C080E251
:1011E00001C08BE227FD8DE2B70190E00E94590912
:1011F000A51438F4B70180E390E00E9459095A948D
:10120000F7CFAA94F401EA0DF11D8081B70190E0B7
:101210000E945909A110F5CF332009F451CEB7012E
:1012200080E290E00E9459093A94F6CFF701868156
:10123000978102C08FEF9FEF2C96E2E10C94050A94
:101240000F931F93CF93DF93869F8001879F100D8D
:10125000969F100D1124C8010E94C805EC0100974B
:1012600029F0A80160E070E00E944709CE01DF91FB
:10127000CF911F910F910895FC010590615070402E
:101280000110D8F7809590958E0F9F1F0895DC016F
:1012900001C06D9341505040E0F70895FC0161504A
:1012A000704001900110D8F7809590958E0F9F1F88
:1012B00008950F931F93CF93DF93182F092FEB01FE
:1012C0008B8181FD03C08FEF9FEF20C082FF10C094
:1012D0004E815F812C813D81421753077CF4E88168
:1012E000F9819F012F5F3F4F39832883108306C008
:1012F000E885F985812F0995892B29F72E813F8172
:101300002F5F3F4F3F832E83812F902FDF91CF910F
:101310001F910F910895FA01AA27283051F1203129
:1013200081F1E8946F936E7F6E5F7F4F8F4F9F4F79
:10133000AF4FB1E03ED0B4E03CD0670F781F891FBB
:101340009A1FA11D680F791F8A1F911DA11D6A0F89
:10135000711D811D911DA11D20D009F468943F913C
:101360002AE0269F11243019305D3193DEF6CF013B
:101370000895462F4770405D4193B3E00FD0C9F701
:10138000F6CF462F4F70405D4A3318F0495D31FD6E
:101390004052419302D0A9F7EACFB4E0A6959795C1
:1013A000879577956795BA95C9F700976105710597
:1013B00008959B01AC010A2E0694579547953795E1
:1013C0002795BA95C9F7620F731F841F951FA01D3B
:1013D00008952F923F924F925F926F927F928F92D9
:1013E0009F92AF92BF92CF92DF92EF92FF920F93B4
:1013F0001F93CF93DF93CDB7DEB7CA1BDB0B0FB6BE
:10140000F894DEBF0FBECDBF09942A88398848887A
:101410005F846E847D848C849B84AA84B984C88410
:10142000DF80EE80FD800C811B81AA81B981CE0F07
:10143000D11D0FB6F894DEBF0FBECDBFED010895EC
:04144000F894FFCF4E
:1014440000004202200043414E4354524C3A2025AE
:10145400640A005374617274696E67205352414D7B
:1014640020746573742E2E2E005772697465207073
:1014740068617365206572726F723A206578745F73
:1014840072616D5B2534645D203D20253032582027
:101494002873686F756C6420626520253032582982
:1014A4000A0052657472696576616C2070686173B4
:1014B40065206572726F723A206578745F72616D2F
:1014C4005B2534645D203D20253032582028736824
:1014D4006F756C642062652025303258290A0053E8
:1014E40052414D207465737420636F6D706C657424
:1014F400656420776974680A253464206572726FA4
:101504007273696E2077726974652070686173659F
:1015140020616E640A253464206572726F727320D0
:10152400696E2072657472696576616C2070686199
:1015340073650A0A004D41494E204D454E550048F9
:1015440069676873636F72657300537461727420A2
:101554006E65772067616D650044656275676769CC
:101564006E670043616C6962726174650044696608
:08157400666963756C7479006F
:00000001FF
