S00F000047726F757035322E73726563A1
S11300000C94F6000C9413010C9413010C9413013A
S11300100C9413010C9413010C9413010C9413010C
S11300200C9413010C9413010C9413010C941301FC
S11300300C9413010C9413010C9413010C941301EC
S11300400C9413010C9413010C9413010C941301DC
S11300500C9413010C9413010C9413010C941301CC
S11300600C9413010C9413010C9413010C941301BC
S113007000000000005C00000C000C007C287C28C0
S113008058DC68002410480028542840000C000064
S1130090007884008478000054385400107C1000E8
S11300A080400000101010000040000060100C00A0
S11300B038543800487C40004864580044542C00AC
S11300C01C107C005C5424003854240064140C007C
S11300D068542C0048543800004800008048000050
S11300E0102844002828280044281000045408003C
S11300F038445C00781478007C5428003844280084
S11301007C4438007C5444007C140400384474005B
S11301107C107C00447C440020403C007C106C003B
S11301207C4040007C187C0078103C003844380047
S11301307C1408003844B8007C1468004854240037
S1130140047C04007C407C003C603C007C307C00EF
S11301506C106C000C700C0064544C00007C440067
S11301600C106000447C00000804080080808000BB
S113017000040800304878007C48300030484800CB
S113018030487C00306850001078140090A8780043
S11301907C08700050744000808074007C106800FB
S11301A0447C4000781078007808700030483000B3
S11301B0F82810003048F80078100800505828003B
S11301C0083C4800384078003840380078207800EF
S11301D04830480098A07800486858001078840097
S11301E0007C0000847810000804080411241FBE59
S11301F0CFEFD4E0DEBFCDBF11E0A0E0B1E0E8EF87
S1130200F6E102C005900D92A63CB107D9F721E0B2
S1130210A6ECB1E001C01D92A03DB207E1F70E9437
S113022092020C947A0B0C940000823069F018F45A
S1130230813031F014C0833059F0843069F00FC03C
S113024084E0809300140BC085E08093001407C001
S113025086E08093001403C087E0809300142CECA4
S11302608CE091E0215080409040E1F700C0809103
S1130270001408950E94D20308951F93CF93DF932F
S1130280EC010E94AD0382FF04C00E94AD0382FD15
S1130290FCCF60E081E30E94960368816295660F5B
S11302A0607E82E30E9496036A816F7085E30E94F8
S11302B096038A81882369F010E0FE01E10FF11DA5
S11302C0638186E3810F0E9496031F5F8A8118175A
S11302D0A0F381E80E94A803DF91CF911F910895B4
S11302E09F92AF92BF92CF92DF92EF92FF920F93C1
S11302F01F93CF93DF93CDB7DEB72B970FB6F89448
S1130300DEBF0FBECDBF7C018CE20E9486031F922C
S11303108F9386E091E09F938F930E948D0882E6ED
S11303200E948603C82E1F928F932BE131E03F93E6
S11303302F930E948D08C694C694C694C694C694FE
S1130340D12C85E60E9486038F70982E0FB6F89400
S1130350DEBF0FBECDBF9920A9F08E010C5F1F4FE9
S11303600F2EF6E6AF2EF02DA90C0F2EF6E6BF2EBB
S1130370F02D8B2D0E948603F80181938F01B39495
S1130380BA10F7CF40E061E08CE20E94B4038CE243
S11303900E9486031F928F9329E231E03F932F93AB
S11303A00E948D08DA82C9829B828BE0FE0131961D
S11303B0D70101900D928A95E1F70F900F900F905D
S11303C00F90C7012B960FB6F894DEBF0FBECDBFBA
S11303D0DF91CF911F910F91FF90EF90DF90CF901D
S11303E0BF90AF909F900895BA9888B3847088BBEB
S11303F008958F579109BC01882777FD8095982F20
S11304000E94E30520E030E04EEF52E40E944805EC
S113041020E030E048EC52E40E946F060E94D206CD
S11304200E94B005CB010895FF920F931F93CF93C1
S1130430DF93CDB7DEB728970FB6F894DEBF0FBEB3
S1130440CDBF81E00E941501F82E82E00E941501C3
S113045090E00E94F901182F092F8F2D90E00E943F
S1130460F90119830A838B839C83212F302F482F12
S1130470592F6D817E818F81988528960FB6F894C7
S1130480DEBF0FBECDBFDF91CF911F910F91FF90C3
S11304900895CF93DF93CDB7DEB728970FB6F894BE
S11304A0DEBF0FBECDBF0E94140229833A834B8363
S11304B05C8329813A818B819C81AC01485E5F4FCA
S11304C04133510548F4273E8FEF380794F02A3121
S11304D031058CF480E016C0285E3F4F213331058E
S11304E060F4873E2FEF920754F04A9754F480E06B
S11304F009C081E007C082E005C080E003C084E059
S113050001C083E028960FB6F894DEBF0FBECDBFBE
S1130510DF91CF91089586B382FB882780F991E01B
S113052089270895CF93DF93CDB7DEB7AC970FB685
S1130530F894DEBF0FBECDBF85B7806885BF64E485
S113054075E080E495E00E9442088FE190E00E940B
S113055039050E9417040E94F4010E9430050E948C
S11305603A010E94090464E182E00E94FC030E94B3
S1130570AC040E94F0048FE00E9486031F928F93C4
S11305808CE391E09F938F930E948D0881E08C838C
S113059082E08D8383E08E8384E08F8385E0888787
S11305A086E0898787E08A8788E08B878B8382E06F
S11305B090E09A838983CE0101960E943D0180E6F2
S11305C00E9486031F928F938BE491E09F938F93F5
S11305D00E948D08CE010C960E947001AE848D8518
S11305E08F938C858F938BE591E09F938F930E94DB
S11305F08D081F92AF9285E691E09F938F930E949E
S11306008D080FB6F894DEBF0FBECDBFAA20B9F097
S11306107E019FE0E90EF11CD12C03E711E0F70104
S113062081917F011F928F931F930F930E948D08D6
S1130630D3940F900F900F900F90DA10F0CF8AE0C0
S113064090E00E94A10801E0CC24C394D12C6894CA
S1130650882481F80F2EFAE49F2EF02D552453940C
S11306600F2EF7E06F2EF02D712C0F2EF3E7EF2EE7
S1130670F1E0FF2EF02D0E944902182FD88ECF8A68
S1130680898E9A8E8B8FCE0147960E943D0113303E
S113069031F4013061F044244A94400E0DC014300A
S11306A041F4073041F044244394400E05C0462CE5
S11306B003C0402E01C0452C24E1402F64E1842D69
S11306C00E9487040E948B02CE0182960E947001D0
S11306D0AA20A1F08E01015F1F4FB72CF801919160
S11306E08F011F929F93FF92EF920E948D08B39403
S11306F00F900F900F900F90BA10F0CF042DBBCF36
S1130700C49880EC0E943505C49A0895CF93C82FED
S1130710C49883E00E9435058C2F0E94350580E043
S11307200E9435058FB1C49ACF910895CF93DF937A
S1130730D82FC62FC49882E00E9435058D2F0E94C1
S113074035058C2F0E943505C49ADF91CF91089509
S1130750C4980E943505C49A0895C49880EA0E94FA
S113076035058FB1C49A08951F93CF93DF93182F43
S1130770D62FC42FC49885E00E943505812F0E948E
S113078035058D2F0E9435058C2F0E943505C49A9E
S1130790DF91CF911F910895482F60EE8FE00E9462
S11307A0B40308950E9480034FEF60E680E60E9440
S11307B0B4034FEF60E680E70E94B40380E40E9434
S11307C0CC030895E0E0F0E192E29083808387E037
S11307D0808308950E94E203E0E0F0E181E28083F7
S11307E010828FE7808380E890E0E0E0F2E11082FD
S11307F001970097E1F70895E0E0F0E192E2908339
S1130800808387E0808381E2808360838FE78083B5
S11308100895CF93C0E08C2F0E94EA03CF5FC830C5
S1130820D1F760E080E00E94FC03CF910895E0E0FE
S1130830F0E18EEA808381EA80838AED808382E11D
S1130840808388EC808388EA80838FE3808385EDCE
S1130850808380E8808381E8808380E5808389EDDC
S1130860808381E2808380E2808310828BED8083A9
S113087080E380838DEA8083108284EA808386EA21
S113088080838FEA808380E092E0E0E0F2E12FEF62
S1130890208301970097E1F70E9409040895CF93FC
S11308A0DF93FC012081222311F1DC0140E060E0B0
S11308B050E0C0E0D2E118C0EC91F0E0EE0FFF1F71
S11308C0EE0FFF1FE051F040E20FF31FE491E883C5
S11308D02F5F3F4F2430310579F74F5FDC01A40FC0
S11308E0B11D2C91222319F0262F352FE5CFDF914E
S11308F0CF9108950E94FC03E0E0F2E188E1808357
S113090080839EE790839CE3908380830895CF93B4
S1130910DF93C82FD62F842F622F0E94FC03E0E0C0
S1130920F2E1108210821082108210826D2F8C2FBF
S11309300E947A04DF91CF910895CF93DF93EC0165
S113094084E190E00E941B07FC01D183C0831382E1
S11309501282DF91CF910895AF92BF92CF92DF922E
S1130960EF92FF920F931F93CF93DF9360E070E0B9
S113097083E891E00E949D04EC01BC018DE891E0C4
S11309800E949D046C01BE0188E991E00E949D04CF
S11309905C01BE0187EA91E00E949D048C01BE01C6
S11309A081EB91E00E949D047C01BE018BEB91E000
S11309B00E949D04BF82AE82D986C8869B878A879F
S11309C0FD86EC861F870E87CE01DF91CF911F91A4
S11309D00F91FF90EF90DF90CF90BF90AF9008956C
S11309E0CF93DF93EC0162E380E00E94FC038881F3
S11309F099810E944F0462E381E00E94FC03EE812E
S1130A00FF81808191810E944F0462E382E00E9411
S1130A10FC03E885F985808191810E944F0462E39B
S1130A2083E00E94FC03EA85FB85808191810E941A
S1130A304F0462E384E00E94FC03EC85FD85808121
S1130A4091810E944F0462E385E00E94FC03EE85DD
S1130A50FF85808191810E944F04DF91CF91089599
S1130A6080EB87BB81E58DB908958FB9779BFECF65
S1130A70089590BD89B988E18AB98EE880BD08954A
S1130A805D9BFECF8CB908955F9BFECF8CB108951A
S1130A900CD0EBC0E3D040F0DAD030F021F45F3F6B
S1130AA019F0CCC0511115C1CFC0F0D098F39923DF
S1130AB0C9F35523B1F3951B550BBB27AA2762171E
S1130AC07307840738F09F5F5F4F220F331F441F63
S1130AD0AA1FA9F333D00E2E3AF0E0E830D091509B
S1130AE05040E695001CCAF729D0FE2F27D0660F88
S1130AF0771F881FBB1F261737074807AB07B0E8C7
S1130B0009F0BB0B802DBF01FF2793585F4F2AF0DC
S1130B109E3F510568F092C0DCC05F3FECF3983E05
S1130B20DCF3869577956795B795F7959F5FC9F739
S1130B30880F911D9695879597F90895E1E0660FC2
S1130B40771F881FBB1F621773078407BA0720F03B
S1130B50621B730B840BBA0BEE1F88F7E0950895A4
S1130B6004D06894B111B5C0089598D088F09F5707
S1130B7090F0B92F9927B751A0F0D1F0660F771FE5
S1130B80881F991F1AF0BA95C9F712C0B13081F0C5
S1130B909FD0B1E008959CC0672F782F8827B85F55
S1130BA039F0B93FCCF3869577956795B395D9F726
S1130BB03EF490958095709561957F4F8F4F9F4F30
S1130BC00895E89409C097FB3EF49095809570953C
S1130BD061957F4F8F4F9F4F9923A9F0F92F96E985
S1130BE0BB279395F695879577956795B795F111FA
S1130BF0F8CFFAF4BB0F11F460FF1BC06F5F7F4F97
S1130C008F4F9F4F16C0882311F096E911C07723A8
S1130C1021F09EE8872F762F05C0662371F096E8B1
S1130C20862F70E060E02AF09A95660F771F881F80
S1130C30DAF7880F9695879597F9089597F99F673E
S1130C4080E870E060E008959FEF80EC0895002450
S1130C500A941616170618060906089500240A941D
S1130C6012161306140605060895092E0394000CA3
S1130C7011F4882352F0BB0F40F4BF2B11F460FF32
S1130C8004C06F5F7F4F8F4F9F4F089557FD90585B
S1130C90440F551F59F05F3F71F04795880F97FB3C
S1130CA0991F61F09F3F79F08795089512161306F6
S1130CB01406551FF2CF4695F1DF08C01616170625
S1130CC01806991FF1CF869571056105089408955A
S1130CD0E894BB2766277727CB0197F908950BD0B3
S1130CE0C4CFB5DF28F0BADF18F0952309F0A6CFFA
S1130CF0ABCF1124EECFCADFA0F3959FD1F3950FAC
S1130D0050E0551F629FF001729FBB27F00DB11D8B
S1130D10639FAA27F00DB11DAA1F649F6627B00D1B
S1130D20A11D661F829F2227B00DA11D621F739F04
S1130D30B00DA11D621F839FA00D611D221F749F12
S1130D403327A00D611D231F849F600D211D822F59
S1130D50762F6A2F11249F5750408AF0E1F08823A0
S1130D604AF0EE0FFF1FBB1F661F771F881F9150AD
S1130D705040A9F79E3F510570F060CFAACF5F3F66
S1130D80ECF3983EDCF3869577956795B795F795E0
S1130D90E7959F5FC1F7FE2B880F911D9695879568
S1130DA097F908957BDFE0F09E37D8F09639B8F4D0
S1130DB09E3848F4672F782F8827985FF9CF869557
S1130DC07795679593959539D0F3B62FB1706B0FDE
S1130DD0711D811D20F4879577956795939502C0C1
S1130DE01CC077CF882371F4772321F09850872B88
S1130DF0762F07C0662311F499270DC09051862BD6
S1130E0070E060E02AF09A95660F771F881FDAF782
S1130E10880F9695879597F908959F3F31F09150E3
S1130E2020F4879577956795B795880F911D9695CA
S1130E30879597F90895CF93DF938230910510F445
S1130E4082E090E0E091C801F091C90120E030E037
S1130E50A0E0B0E0309739F140815181481759073B
S1130E60B8F04817590771F482819381109729F0DB
S1130E7013969C938E9312972CC09093C9018093E0
S1130E80C80127C02115310531F04217530718F066
S1130E90A901DB0101C0EF019A01BD01DF0102805C
S1130EA0F381E02DD7CF21153105F9F0281B390B3B
S1130EB02430310580F48A819B816115710521F00C
S1130EC0FB019383828304C09093C9018093C8017A
S1130ED0FE01329644C0FE01E20FF31F8193919309
S1130EE022503109398328833AC02091C6013091B8
S1130EF0C701232B41F42091020130910301309367
S1130F00C7012093C60120910001309101012115F0
S1130F10310541F42DB73EB74091040150910501CC
S1130F20241B350BE091C601F091C701E217F307CA
S1130F30A0F42E1B3F0B2817390778F0AC014E5F45
S1130F405F4F2417350748F04E0F5F1F5093C701BA
S1130F504093C6018193919302C0E0E0F0E0CF0199
S1130F60DF91CF910895CF93DF93009709F487C061
S1130F70FC01329713821282C091C801D091C90139
S1130F80209781F420813181280F391F8091C60177
S1130F909091C7018217930779F5F093C701E09305
S1130FA0C6016DC0DE0120E030E0AE17BF0750F48B
S1130FB012964D915C9113979D014115510509F1CC
S1130FC0DA01F3CFB383A28340815181840F951F4B
S1130FD08A179B0771F48D919C911197840F951F2B
S1130FE002969183808312968D919C91139793839B
S1130FF082832115310529F4F093C901E093C801D6
S11310003EC0D9011396FC93EE9312974D915D91D6
S1131010A40FB51FEA17FB0779F480819181840F2F
S1131020951F0296D90111969C938E938281938188
S113103013969C938E931297E0E0F0E08A819B8153
S1131040009719F0FE01EC01F9CFCE010296288138
S11310503981820F931F2091C6013091C70128174F
S1131060390769F4309729F41092C9011092C80124
S113107002C013821282D093C701C093C601DF91CC
S1131080CF9108950F931F93CF93DF93EC018B01BE
S1131090009731F46115710519F480E090E038C0CF
S11310A06EE070E081E090E00E947A0AFC01009713
S11310B0A1F380E883830115110571F0138702877A
S11310C081E883838091CA019091CB01892B21F41B
S11310D0F093CB01E093CA012097C9F0D187C08770
S11310E08381826083838091CC019091CD01892B8F
S11310F071F4F093CD01E093CC018091CE019091F5
S1131100CF01892B21F4F093CF01E093CE01CF01DD
S1131110DF91CF911F910F910895A0E0B0E0E3E932
S1131120F8E00C94530BFE01359661917191AF0177
S11311308091CC019091CD010E94A808E2E00C942A
S11311406F0B6091CC017091CD010E94B30A089598
S1131150ACE0B0E0EEEAF8E00C94430B7C016B01E8
S11311608A01FC0117821682838181FFBDC1CE01F1
S113117001964C01F7019381F60193FD859193FF4C
S113118081916F01882309F4ABC1853239F493FD51
S1131190859193FF81916F01853229F4B70190E025
S11311A00E94B30AE7CF512C312C20E02032A0F466
S11311B08B3269F030F4803259F0833269F4206163
S11311C02CC08D3239F0803339F4216026C022607E
S11311D0246023C0286021C027FD27C030ED380FCC
S11311E03A3078F426FF06C0FAE05F9E300D1124F1
S11311F0532E13C08AE0389E300D1124332E206202
S11312000CC08E3221F426FD6BC1206406C08C36DE
S113121011F4206802C0883641F4F60193FD8591EB
S113122093FF81916F018111C1CF982F9F7D9554B8
S1131230933028F40C5F1F4FFFE3F9830DC083360E
S113124031F0833771F0833509F05BC022C0F801B7
S1131250808189830E5F1F4F44244394512C540191
S113126015C03801F2E06F0E711CF801A080B18046
S113127026FF03C0652D70E002C06FEF7FEFC5014C
S11312802C870E94A80A2C0183012C852F77222EFB
S113129017C03801F2E06F0E711CF801A080B18014
S11312A026FF03C0652D70E002C06FEF7FEFC5011C
S11312B02C870E94960A2C012C852068222E8301FB
S11312C023FC1BC0832D90E048165906B0F4B701E7
S11312D080E290E00E94B30A3A94F4CFF50127FC2F
S11312E0859127FE81915F01B70190E00E94B30AC6
S11312F031103A94F1E04F1A51084114510471F736
S1131300E5C0843611F0893639F5F80127FF07C0A6
S113131060817181828193810C5F1F4F08C060815D
S11313207181882777FD8095982F0E5F1F4F2F7648
S1131330B22E97FF09C090958095709561957F4F67
S11313408F4F9F4F2068B22E2AE030E0A4010E9404
S1131350E50AA82EA81844C0853729F42F7EB22E9A
S11313602AE030E025C0F22FF97FBF2E8F36C1F07E
S113137018F4883579F0B4C0803719F0883721F033
S1131380AFC02F2F2061B22EB4FE0DC08B2D846010
S1131390B82E09C024FF0AC09F2F9660B92E06C03C
S11313A028E030E005C020E130E002C020E132E076
S11313B0F801B7FE07C060817181828193810C5F5F
S11313C01F4F06C06081718180E090E00E5F1F4F67
S11313D0A4010E94E50AA82EA818FB2DFF77BF2EB2
S11313E0B6FE0BC02B2D2E7FA51450F4B4FE0AC0FC
S11313F0B2FC08C02B2D2E7E05C07A2C2B2D03C0E9
S11314007A2C01C0752C24FF0DC0FE01EA0DF11DDC
S11314108081803311F4297E09C022FF06C07394B1
S1131420739404C0822F867809F0739423FD13C04B
S113143020FF06C05A2C731418F4530C5718732C3D
S1131440731468F4B70180E290E02C870E94B30A19
S113145073942C85F5CF731410F4371801C0312C14
S113146024FF12C0B70180E390E02C870E94B30AE6
S11314702C8522FF17C021FF03C088E590E002C03D
S113148088E790E0B7010CC0822F867859F021FDDF
S113149002C080E201C08BE227FD8DE2B70190E03B
S11314A00E94B30AA51438F4B70180E390E00E94C7
S11314B0B30A5A94F7CFAA94F401EA0DF11D80817E
S11314C0B70190E00E94B30AA110F5CF332009F4CC
S11314D051CEB70180E290E00E94B30A3A94F6CF6D
S11314E0F7018681978102C08FEF9FEF2C96E2E18E
S11314F00C945F0B0F931F93CF93DF93869F800110
S1131500879F100D969F100D1124C8010E941B0780
S1131510EC01009729F0A80160E070E00E94A10AA4
S1131520CE01DF91CF911F910F910895FC01059099
S1131530615070400110D8F7809590958E0F9F1FD1
S11315400895DC0101C06D9341505040E0F70895C7
S1131550FC016150704001900110D8F7809590957E
S11315608E0F9F1F08950F931F93CF93DF93182F10
S1131570092FEB018B8181FD03C08FEF9FEF20C00A
S113158082FF10C04E815F812C813D814217530739
S11315907CF4E881F9819F012F5F3F4F39832883D1
S11315A0108306C0E885F985812F0995892B29F7D1
S11315B02E813F812F5F3F4F3F832E83812F902FBA
S11315C0DF91CF911F910F910895FA01AA27283036
S11315D051F1203181F1E8946F936E7F6E5F7F4FFC
S11315E08F4F9F4FAF4FB1E03ED0B4E03CD0670F78
S11315F0781F891F9A1FA11D680F791F8A1F911DCB
S1131600A11D6A0F711D811D911DA11D20D009F41A
S113161068943F912AE0269F11243019305D31935C
S1131620DEF6CF010895462F4770405D4193B3E045
S11316300FD0C9F7F6CF462F4F70405D4A3318F0EC
S1131640495D31FD4052419302D0A9F7EACFB4E09D
S1131650A6959795879577956795BA95C9F7009755
S11316606105710508959B01AC010A2E06945795F6
S1131670479537952795BA95C9F7620F731F841F4D
S1131680951FA01D08952F923F924F925F926F92E3
S11316907F928F929F92AF92BF92CF92DF92EF92FE
S11316A0FF920F931F93CF93DF93CDB7DEB7CA1B7F
S11316B0DB0B0FB6F894DEBF0FBECDBF09942A88AA
S11316C0398848885F846E847D848C849B84AA8452
S11316D0B984C884DF80EE80FD800C811B81AA81DF
S11316E0B981CE0FD11D0FB6F894DEBF0FBECDBFAA
S10B16F0ED010895F894FFCF09
S11316F80000D001200043616E696E746620424583
S113170847494E3A20253032780A004275666665A4
S1131718723A20253032780A0043616E696E746625
S113172820454E443A20253032780A0043414E433E
S113173854524C3A20253032780A005258423043E9
S113174854524C3A20253032780A0049443A20252C
S11317583032780A006C656E6774683A2025303236
S1131768780A0052656365697665643A20253032E3
S1131778780A004D41494E204D454E550048696749
S11317886873636F726573005374617274206E6555
S1131798772067616D6500446562756767696E6780
S11317A80043616C696272617465004469666669C4
S10917B863756C747900F6
S9030000FC
