:100000000C94F6000C9413010C9413010C9413013E
:100010000C9413010C9413010C9413010C94130110
:100020000C9413010C9413010C9413010C94130100
:100030000C9413010C9413010C9413010C941301F0
:100040000C9413010C9413010C9413010C941301E0
:100050000C9413010C9413010C9413010C941301D0
:100060000C9413010C9413010C9413010C941301C0
:1000700000000000005C00000C000C007C287C28C4
:1000800058DC68002410480028542840000C000068
:10009000007884008478000054385400107C1000EC
:1000A00080400000101010000040000060100C00A4
:1000B00038543800487C40004864580044542C00B0
:1000C0001C107C005C5424003854240064140C0080
:1000D00068542C0048543800004800008048000054
:1000E0001028440028282800442810000454080040
:1000F00038445C00781478007C5428003844280088
:100100007C4438007C5444007C140400384474005F
:100110007C107C00447C440020403C007C106C003F
:100120007C4040007C187C0078103C00384438004B
:100130007C1408003844B8007C146800485424003B
:10014000047C04007C407C003C603C007C307C00F3
:100150006C106C000C700C0064544C00007C44006B
:100160000C106000447C00000804080080808000BF
:1001700000040800304878007C48300030484800CF
:1001800030487C00306850001078140090A8780047
:100190007C08700050744000808074007C106800FF
:1001A000447C4000781078007808700030483000B7
:1001B000F82810003048F80078100800505828003F
:1001C000083C4800384078003840380078207800F3
:1001D0004830480098A0780048685800107884009B
:1001E000007C0000847810000804080411241FBE5D
:1001F000CFEFD4E0DEBFCDBF11E0A0E0B1E0EEEE86
:10020000FFE002C005900D92AA34B107D9F721E0B2
:10021000AAE4B1E001C01D92A435B207E1F70E9443
:100220000E020C94F5070C940000823069F018F46B
:10023000813031F014C0833059F0843069F00FC040
:1002400084E0809300140BC085E08093001407C005
:1002500086E08093001403C087E0809300142CECA8
:100260008CE091E0215080409040E1F700C0809107
:10027000001408950E94DC0208951F93CF93DF932A
:10028000EC010E94B40282FF04C00E94B40282FD0D
:10029000FCCF60E081E30E949D0268816295660F59
:1002A000607E82E30E949D026A816F7085E30E94F6
:1002B0009D028A81882369F010E0FE01E10FF11DA3
:1002C000638186E3810F0E949D021F5F8A81181758
:1002D000A0F381E80E94AF02DF91CF911F910895B2
:1002E000BA9888B3847088BB08958F579109BC0170
:1002F000882777FD8095982F0E94EF0420E030E05A
:100300004EEF52E40E94540420E030E048EC52E406
:100310000E947B050E94DE050E94BC04CB0108956B
:10032000FF920F931F93CF93DF93CDB7DEB728973C
:100330000FB6F894DEBF0FBECDBF81E00E9415015D
:10034000F82E82E00E94150190E00E947501182F9E
:10035000092F8F2D90E00E94750119830A838B83EA
:100360009C83212F302F482F592F6D817E818F81C3
:10037000988528960FB6F894DEBF0FBECDBFDF91EB
:10038000CF911F910F91FF900895CF93DF93CDB739
:10039000DEB728970FB6F894DEBF0FBECDBF0E9420
:1003A000900129833A834B835C8329813A818B8135
:1003B0009C81AC01485E5F4F4133510548F4273EB4
:1003C0008FEF380794F02A3131058CF480E016C0A5
:1003D000285E3F4F2133310560F4873E2FEF9207AF
:1003E00054F04A9754F480E009C081E007C082E0ED
:1003F00005C080E003C084E001C083E028960FB60A
:10040000F894DEBF0FBECDBFDF91CF91089586B3C4
:1004100082FB882780F991E089270895CF93DF93A5
:10042000CDB7DEB72B970FB6F894DEBF0FBECDBFAA
:1004300085B7806885BF60E574E08CE494E00E9435
:100440004E078FE190E00E9445040E9423030E9422
:1004500070010E943A010E94150364E182E00E944B
:1004600008030E94B8030E94FC038FE00E948D02E3
:1004700080E60E948D028AE090E00E94990781E068
:100480008C8382E08D8383E08E8384E08F8385E09C
:10049000888786E0898787E08A8788E08B878B83D7
:1004A00082E090E09A83898311E0EE24E3940F2E9A
:1004B000F7E0FF2EF02DCE0101960E943D012FEFB7
:1004C0008FE797E0215080409040E1F700C00000A6
:1004D0000E94C501833029F4113051F00FEF010F54
:1004E0000CC0843039F4173039F001E0010F05C039
:1004F0000F2D03C0012F01C00E2D24E1412F64E117
:10050000802F0E9493030E940702102FD4CFC4981B
:1005100080EC0E944104C49A0895CF93C82FC498D8
:1005200083E00E9441048C2F0E94410480E00E94DD
:1005300041048FB1C49ACF910895CF93DF93D82F00
:10054000C62FC49882E00E9441048D2F0E9441046E
:100550008C2F0E944104C49ADF91CF910895C498D2
:100560000E944104C49A0895C49880EA0E944104FC
:1005700080E00E9441048FB1C49A08951F93CF93E5
:10058000DF93182FD62FC42FC49885E00E94410412
:10059000812F0E9441048D2F0E9441048C2F0E94C4
:1005A0004104C49ADF91CF911F910895482F60EEC6
:1005B0008FE00E94BE0208950E943C040E948702C0
:1005C0004FEF60E680E60E94BE024FEF60E680E7F4
:1005D0000E94BE0280E00E94D6020895E0E0F0E1B1
:1005E00092E29083808387E0808308950E94EE02E8
:1005F000E0E0F0E181E2808310828FE7808380E891
:1006000090E0E0E0F2E1108201970097E1F70895B1
:10061000E0E0F0E192E29083808387E0808381E2F2
:10062000808360838FE780830895CF93C0E08C2F11
:100630000E94F602CF5FC830D1F760E080E00E94F0
:100640000803CF910895E0E0F0E18EEA808381EA2B
:1006500080838AED808382E1808388EC808388EACE
:1006600080838FE3808385ED808380E8808381E8C9
:10067000808380E5808389ED808381E2808380E2CE
:10068000808310828BED808380E380838DEA80837A
:10069000108284EA808386EA80838FEA808380E008
:1006A00092E0E0E0F2E12FEF208301970097E1F77D
:1006B0000E9415030895CF93DF93FC01208122232C
:1006C00011F1DC0140E060E050E0C0E0D2E118C090
:1006D000EC91F0E0EE0FFF1FEE0FFF1FE051F04036
:1006E000E20FF31FE491E8832F5F3F4F2430310581
:1006F00079F74F5FDC01A40FB11D2C91222319F073
:10070000262F352FE5CFDF91CF9108950E94080362
:10071000E0E0F2E188E1808380839EE790839CE3C0
:10072000908380830895CF93DF93C82FD62F842F93
:10073000622F0E940803E0E0F2E110821082108232
:10074000108210826D2F8C2F0E948603DF91CF9133
:100750000895CF93DF93EC0184E190E00E94270697
:10076000FC01D183C08313821282DF91CF9108955F
:10077000AF92BF92CF92DF92EF92FF920F931F93AF
:10078000CF93DF9360E070E086E091E00E94A903E0
:10079000EC01BC0180E191E00E94A9036C01BE0163
:1007A0008BE191E00E94A9035C01BE018AE291E025
:1007B0000E94A9038C01BE0184E391E00E94A90379
:1007C0007C01BE018EE391E00E94A903BF82AE824C
:1007D000D986C8869B878A87FD86EC861F870E8709
:1007E000CE01DF91CF911F910F91FF90EF90DF909D
:1007F000CF90BF90AF900895CF93DF93EC0162E369
:1008000080E00E940803888199810E945B0362E373
:1008100081E00E940803EE81FF81808191810E9426
:100820005B0362E382E00E940803E885F98580812A
:1008300091810E945B0362E383E00E940803EA85E2
:10084000FB85808191810E945B0362E384E00E94CA
:100850000803EC85FD85808191810E945B0362E342
:1008600085E00E940803EE85FF85808191810E94CA
:100870005B03DF91CF91089580EB87BB81E58DB954
:1008800008958FB9779BFECF089590BD89B988E10F
:100890008AB98EE880BD08955D9BFECF8CB908951E
:1008A0005F9BFECF8CB108950CD0EBC0E3D040F03D
:1008B000DAD030F021F45F3F19F0CCC0511115C1EE
:1008C000CFC0F0D098F39923C9F35523B1F3951B0A
:1008D000550BBB27AA2762177307840738F09F5F61
:1008E0005F4F220F331F441FAA1FA9F333D00E2ED0
:1008F0003AF0E0E830D091505040E695001CCAF73D
:1009000029D0FE2F27D0660F771F881FBB1F261701
:1009100037074807AB07B0E809F0BB0B802DBF01D4
:10092000FF2793585F4F2AF09E3F510568F092C011
:10093000DCC05F3FECF3983EDCF3869577956795D6
:10094000B795F7959F5FC9F7880F911D9695879585
:1009500097F90895E1E0660F771F881FBB1F6217A4
:1009600073078407BA0720F0621B730B840BBA0B62
:10097000EE1F88F7E095089504D06894B111B5C0D2
:10098000089598D088F09F5790F0B92F9927B751C4
:10099000A0F0D1F0660F771F881F991F1AF0BA9543
:1009A000C9F712C0B13081F09FD0B1E008959CC06A
:1009B000672F782F8827B85F39F0B93FCCF3869539
:1009C00077956795B395D9F73EF490958095709596
:1009D00061957F4F8F4F9F4F0895E89409C097FB13
:1009E0003EF490958095709561957F4F8F4F9F4F06
:1009F0009923A9F0F92F96E9BB279395F69587954A
:100A000077956795B795F111F8CFFAF4BB0F11F40C
:100A100060FF1BC06F5F7F4F8F4F9F4F16C08823B3
:100A200011F096E911C0772321F09EE8872F762FE9
:100A300005C0662371F096E8862F70E060E02AF02A
:100A40009A95660F771F881FDAF7880F9695879516
:100A500097F9089597F99F6780E870E060E008953E
:100A60009FEF80EC089500240A94161617061806C6
:100A70000906089500240A941216130614060506A2
:100A80000895092E0394000C11F4882352F0BB0F33
:100A900040F4BF2B11F460FF04C06F5F7F4F8F4F96
:100AA0009F4F089557FD9058440F551F59F05F3FD1
:100AB00071F04795880F97FB991F61F09F3F79F080
:100AC00087950895121613061406551FF2CF469502
:100AD000F1DF08C0161617061806991FF1CF869584
:100AE0007105610508940895E894BB276627772768
:100AF000CB0197F908950BD0C4CFB5DF28F0BADF4A
:100B000018F0952309F0A6CFABCF1124EECFCADFA2
:100B1000A0F3959FD1F3950F50E0551F629FF00110
:100B2000729FBB27F00DB11D639FAA27F00DB11D69
:100B3000AA1F649F6627B00DA11D661F829F2227F2
:100B4000B00DA11D621F739FB00DA11D621F839F79
:100B5000A00D611D221F749F3327A00D611D231F4F
:100B6000849F600D211D822F762F6A2F11249F579D
:100B700050408AF0E1F088234AF0EE0FFF1FBB1FC0
:100B8000661F771F881F91505040A9F79E3F51055F
:100B900070F060CFAACF5F3FECF3983EDCF3869510
:100BA00077956795B795F795E7959F5FC1F7FE2B0A
:100BB000880F911D9695879597F908957BDFE0F052
:100BC0009E37D8F09639B8F49E3848F4672F782FBE
:100BD0008827985FF9CF869577956795939595398E
:100BE000D0F3B62FB1706B0F711D811D20F4879566
:100BF00077956795939502C01CC077CF882371F4D1
:100C0000772321F09850872B762F07C0662311F4A5
:100C100099270DC09051862B70E060E02AF09A95DC
:100C2000660F771F881FDAF7880F9695879597F9D3
:100C300008959F3F31F0915020F4879577956795FF
:100C4000B795880F911D9695879597F90895CF933D
:100C5000DF938230910510F482E090E0E0914C0146
:100C6000F0914D0120E030E0A0E0B0E0309739F1A4
:100C70004081518148175907B8F04817590771F456
:100C800082819381109729F013969C938E931297EB
:100C90002CC090934D0180934C0127C02115310544
:100CA00031F04217530718F0A901DB0101C0EF0131
:100CB0009A01BD01DF010280F381E02DD7CF21151C
:100CC0003105F9F0281B390B2430310580F48A8175
:100CD0009B816115710521F0FB019383828304C020
:100CE00090934D0180934C01FE01329644C0FE0169
:100CF000E20FF31F819391932250310939832883A6
:100D00003AC020914A0130914B01232B41F42091AC
:100D100002013091030130934B0120934A0120914D
:100D20000001309101012115310541F42DB73EB785
:100D30004091040150910501241B350BE0914A01BB
:100D4000F0914B01E217F307A0F42E1B3F0B28177D
:100D5000390778F0AC014E5F5F4F2417350748F034
:100D60004E0F5F1F50934B0140934A018193919323
:100D700002C0E0E0F0E0CF01DF91CF910895CF9382
:100D8000DF93009709F487C0FC0132971382128227
:100D9000C0914C01D0914D01209781F42081318187
:100DA000280F391F80914A0190914B0182179307B8
:100DB00079F5F0934B01E0934A016DC0DE0120E02C
:100DC00030E0AE17BF0750F412964D915C91139727
:100DD0009D014115510509F1DA01F3CFB383A283D7
:100DE00040815181840F951F8A179B0771F48D9163
:100DF0009C911197840F951F029691838083129680
:100E00008D919C911397938382832115310529F449
:100E1000F0934D01E0934C013EC0D9011396FC9331
:100E2000EE9312974D915D91A40FB51FEA17FB0742
:100E300079F480819181840F951F0296D9011196D2
:100E40009C938E938281938113969C938E93129799
:100E5000E0E0F0E08A819B81009719F0FE01EC014F
:100E6000F9CFCE01029628813981820F931F2091FC
:100E70004A0130914B012817390769F4309729F45A
:100E800010924D0110924C0102C013821282D09335
:100E90004B01C0934A01DF91CF9108950F931F93A7
:100EA000CF93DF93EC018B01009731F4611571054D
:100EB00019F480E090E038C06EE070E081E090E0EE
:100EC0000E94A007FC010097A1F380E8838301152D
:100ED000110571F01387028781E8838380914E01A9
:100EE00090914F01892B21F4F0934F01E0934E0133
:100EF0002097C9F0D187C0878381826083838091E6
:100F0000500190915101892B71F4F0935101E093BC
:100F100050018091520190915301892B21F4F0935B
:100F20005301E0935201CF01DF91CF911F910F91B7
:100F3000089560915001709151010E94C307089576
:100F40000F931F93CF93DF93869F8001879F100D90
:100F5000969F100D1124C8010E942706EC010097EE
:100F600029F0A80160E070E00E94BC07CE01DF918B
:100F7000CF911F910F910895DC0101C06D934150F5
:100F80005040E0F708950F931F93CF93DF93182FEE
:100F9000092FEB018B8181FD03C08FEF9FEF20C0F4
:100FA00082FF10C04E815F812C813D814217530723
:100FB0007CF4E881F9819F012F5F3F4F39832883BB
:100FC000108306C0E885F985812F0995892B29F7BB
:100FD0002E813F812F5F3F4F3F832E83812F902FA4
:0E0FE000DF91CF911F910F910895F894FFCFEC
:100FEE000000540120004D41494E204D454E550004
:100FFE004869676873636F726573005374617274C6
:10100E00206E65772067616D650044656275676760
:10101E00696E670043616C69627261746500446950
:0A102E0066666963756C7479000052
:00000001FF
