:100000000C94F6000C9413010C9413010C9413013E
:100010000C9413010C9413010C9413010C94130110
:100020000C9413010C9413010C9413010C94130100
:100030000C9413010C9413010C9413010C941301F0
:100040000C9413010C9413010C9413010C941301E0
:100050000C9413010C9413010C9413010C941301D0
:100060000C9413010C9413010C9413010C941301C0
:1000700000000000005C00000C000C007C287C28C4
:1000800058DC68002410480028542840000C000068
:10009000007884008478000054385400107C1000EC
:1000A00080400000101010000040000060100C00A4
:1000B00038543800487C40004864580044542C00B0
:1000C0001C107C005C5424003854240064140C0080
:1000D00068542C0048543800004800008048000054
:1000E0001028440028282800442810000454080040
:1000F00038445C00781478007C5428003844280088
:100100007C4438007C5444007C140400384474005F
:100110007C107C00447C440020403C007C106C003F
:100120007C4040007C187C0078103C00384438004B
:100130007C1408003844B8007C146800485424003B
:10014000047C04007C407C003C603C007C307C00F3
:100150006C106C000C700C0064544C00007C44006B
:100160000C106000447C00000804080080808000BF
:1001700000040800304878007C48300030484800CF
:1001800030487C00306850001078140090A8780047
:100190007C08700050744000808074007C106800FF
:1001A000447C4000781078007808700030483000B7
:1001B000F82810003048F80078100800505828003F
:1001C000083C4800384078003840380078207800F3
:1001D0004830480098A0780048685800107884009B
:1001E000007C0000847810000804080411241FBE5D
:1001F000CFEFD4E0DEBFCDBF12E0A0E0B1E0E2E699
:10020000F3E102C005900D92A033B107D9F722E0C7
:10021000A0E3B2E001C01D92AA33B207E1F70E9449
:10022000D8010C94AF090C940000823069F018F4E6
:10023000813031F014C0833059F0843069F00FC040
:1002400084E0809300140BC085E08093001407C005
:1002500086E08093001403C087E0809300142CECA8
:100260008CE091E0215080409040E1F700C0809107
:1002700000140895BA9888B3847088BB08958F5786
:100280009109BC01882777FD8095982F0E941F0453
:1002900020E030E04EEF52E40E94840320E030E0A2
:1002A00048EC52E40E94AB040E940E050E94EC034D
:1002B000CB010895FF920F931F93CF93DF93CDB798
:1002C000DEB728970FB6F894DEBF0FBECDBF81E032
:1002D0000E941501F82E82E00E94150190E00E9414
:1002E0003F01182F092F8F2D90E00E943F011983A5
:1002F0000A838B839C83212F302F482F592F6D81A8
:100300007E818F81988528960FB6F894DEBF0FBE48
:10031000CDBFDF91CF911F910F91FF900895CF93A3
:10032000DF93CDB7DEB728970FB6F894DEBF0FBEC8
:10033000CDBF0E945A0129833A834B835C83298174
:100340003A818B819C81AC01485E5F4F41335105FE
:1003500048F4273E8FEF380794F02A3131058CF4AA
:1003600080E016C0285E3F4F2133310560F4873EA0
:100370002FEF920754F04A9754F480E009C081E0CF
:1003800007C082E005C080E003C084E001C083E0D4
:1003900028960FB6F894DEBF0FBECDBFDF91CF9188
:1003A000089586B382FB882780F991E08927089514
:1003B00085B7806885BF60E873E08CE793E00E94B2
:1003C0007E068FE190E00E9475030E9429020E9440
:1003D0003A010E94860264E182E00E9479020E9452
:1003E000F1020E94350311E0EE24E3940F2EF7E0B2
:1003F000FF2EF02DC6E0D1E00E948F01833029F45A
:10040000113051F00FEF010F0CC0843039F4173068
:1004100039F001E0010F05C00F2D03C0012F01C00D
:100420000E2D24E1412F64E1802F0E94CC020E9416
:10043000D1011F928F93DF93CF930E94C90680E072
:1004400090EF0197F1F70F900F900F900F90102FF2
:10045000D3CFE0E0F0E18EEA808381EA80838AED09
:10046000808382E1808388EC808388EA80838FE3C5
:10047000808385ED808380E8808381E8808380E5C8
:10048000808389ED808381E2808380E28083108293
:100490008BED808380E380838DEA8083108284EA01
:1004A000808386EA80838FEA808380E092E0E0E0C8
:1004B000F2E12FEF208301970097E1F70895E0E044
:1004C000F0E192E29083808387E0808308950E9428
:1004D0005F02E0E0F0E181E2808310828FE78083B9
:1004E00080E890E0E0E0F2E1108201970097E1F708
:1004F0000895E0E0F0E192E29083808387E08083DA
:1005000081E2808360838FE780830895CF93C0E08A
:100510008C2F0E946702CF5FC830D1F760E080E087
:100520000E947902CF910895CF93DF93FC0120813F
:10053000222311F1DC0140E060E050E0C0E0D2E1B4
:1005400018C0EC91F0E0EE0FFF1FEE0FFF1FE0511F
:10055000F040E20FF31FE491E8832F5F3F4F243018
:10056000310579F74F5FDC01A40FB11D2C912223D7
:1005700019F0262F352FE5CFDF91CF9108950E94F6
:100580007902E0E0F2E188E1808380839EE7908356
:100590009CE3908380830895CF93DF93C82FD62F59
:1005A000842F622F0E947902E0E0F2E11082108233
:1005B0001082108210826D2F8C2F0E94BF02DF915B
:1005C000CF910895CF93DF93EC0184E190E00E94F6
:1005D0005705FC01D183C08313821282DF91CF9132
:1005E0000895AF92BF92CF92DF92EF92FF920F9356
:1005F0001F93CF93DF9360E070E08CEE91E00E9458
:10060000E202EC01BC0186EF91E00E94E2026C0183
:10061000BE0181E092E00E94E2025C01BE0180E145
:1006200092E00E94E2028C01BE018AE192E00E9407
:10063000E2027C01BE0184E292E00E94E202BF82FB
:10064000AE82D986C8869B878A87FD86EC861F87FF
:100650000E87CE01DF91CF911F910F91FF90EF9008
:10066000DF90CF90BF90AF900895CF93DF93EC01D0
:1006700062E380E00E947902888199810E9494025D
:1006800062E381E00E947902EE81FF8180819181A5
:100690000E94940262E382E00E947902E885F98573
:1006A000808191810E94940262E383E00E9479023A
:1006B000EA85FB85808191810E94940262E384E057
:1006C0000E947902EC85FD85808191810E949402CF
:1006D00062E385E00E947902EE85FF858081918149
:1006E0000E949402DF91CF91089590BD89B988E16D
:1006F0008AB98EE880BD08955D9BFECF8CB90895C0
:100700005F9BFECF8CB108950CD0EBC0E3D040F0DE
:10071000DAD030F021F45F3F19F0CCC0511115C18F
:10072000CFC0F0D098F39923C9F35523B1F3951BAB
:10073000550BBB27AA2762177307840738F09F5F02
:100740005F4F220F331F441FAA1FA9F333D00E2E71
:100750003AF0E0E830D091505040E695001CCAF7DE
:1007600029D0FE2F27D0660F771F881FBB1F2617A3
:1007700037074807AB07B0E809F0BB0B802DBF0176
:10078000FF2793585F4F2AF09E3F510568F092C0B3
:10079000DCC05F3FECF3983EDCF386957795679578
:1007A000B795F7959F5FC9F7880F911D9695879527
:1007B00097F90895E1E0660F771F881FBB1F621746
:1007C00073078407BA0720F0621B730B840BBA0B04
:1007D000EE1F88F7E095089504D06894B111B5C074
:1007E000089598D088F09F5790F0B92F9927B75166
:1007F000A0F0D1F0660F771F881F991F1AF0BA95E5
:10080000C9F712C0B13081F09FD0B1E008959CC00B
:10081000672F782F8827B85F39F0B93FCCF38695DA
:1008200077956795B395D9F73EF490958095709537
:1008300061957F4F8F4F9F4F0895E89409C097FBB4
:100840003EF490958095709561957F4F8F4F9F4FA7
:100850009923A9F0F92F96E9BB279395F6958795EB
:1008600077956795B795F111F8CFFAF4BB0F11F4AE
:1008700060FF1BC06F5F7F4F8F4F9F4F16C0882355
:1008800011F096E911C0772321F09EE8872F762F8B
:1008900005C0662371F096E8862F70E060E02AF0CC
:1008A0009A95660F771F881FDAF7880F96958795B8
:1008B00097F9089597F99F6780E870E060E00895E0
:1008C0009FEF80EC089500240A9416161706180668
:1008D0000906089500240A94121613061406050644
:1008E0000895092E0394000C11F4882352F0BB0FD5
:1008F00040F4BF2B11F460FF04C06F5F7F4F8F4F38
:100900009F4F089557FD9058440F551F59F05F3F72
:1009100071F04795880F97FB991F61F09F3F79F021
:1009200087950895121613061406551FF2CF4695A3
:10093000F1DF08C0161617061806991FF1CF869525
:100940007105610508940895E894BB276627772709
:10095000CB0197F908950BD0C4CFB5DF28F0BADFEB
:1009600018F0952309F0A6CFABCF1124EECFCADF44
:10097000A0F3959FD1F3950F50E0551F629FF001B2
:10098000729FBB27F00DB11D639FAA27F00DB11D0B
:10099000AA1F649F6627B00DA11D661F829F222794
:1009A000B00DA11D621F739FB00DA11D621F839F1B
:1009B000A00D611D221F749F3327A00D611D231FF1
:1009C000849F600D211D822F762F6A2F11249F573F
:1009D00050408AF0E1F088234AF0EE0FFF1FBB1F62
:1009E000661F771F881F91505040A9F79E3F510501
:1009F00070F060CFAACF5F3FECF3983EDCF38695B2
:100A000077956795B795F795E7959F5FC1F7FE2BAB
:100A1000880F911D9695879597F908957BDFE0F0F3
:100A20009E37D8F09639B8F49E3848F4672F782F5F
:100A30008827985FF9CF869577956795939595392F
:100A4000D0F3B62FB1706B0F711D811D20F4879507
:100A500077956795939502C01CC077CF882371F472
:100A6000772321F09850872B762F07C0662311F447
:100A700099270DC09051862B70E060E02AF09A957E
:100A8000660F771F881FDAF7880F9695879597F975
:100A900008959F3F31F0915020F4879577956795A1
:100AA000B795880F911D9695879597F90895CF93DF
:100AB000DF938230910510F482E090E0E091320201
:100AC000F091330220E030E0A0E0B0E0309739F15F
:100AD0004081518148175907B8F04817590771F4F8
:100AE00082819381109729F013969C938E9312978D
:100AF0002CC0909333028093320227C02115310518
:100B000031F04217530718F0A901DB0101C0EF01D2
:100B10009A01BD01DF010280F381E02DD7CF2115BD
:100B20003105F9F0281B390B2430310580F48A8116
:100B30009B816115710521F0FB019383828304C0C1
:100B40009093330280933202FE01329644C0FE013C
:100B5000E20FF31F81939193225031093983288347
:100B60003AC02091300230913102232B41F4209180
:100B70000201309103013093310220933002209121
:100B80000001309101012115310541F42DB73EB727
:100B90004091040150910501241B350BE091300276
:100BA000F0913102E217F307A0F42E1B3F0B281738
:100BB000390778F0AC014E5F5F4F2417350748F0D6
:100BC0004E0F5F1F509331024093300281939193F7
:100BD00002C0E0E0F0E0CF01DF91CF910895CF9324
:100BE000DF93009709F487C0FC01329713821282C9
:100BF000C0913202D0913302209781F4208131815B
:100C0000280F391F8091300290913102821793078B
:100C100079F5F0933102E09330026DC0DE0120E0FF
:100C200030E0AE17BF0750F412964D915C911397C8
:100C30009D014115510509F1DA01F3CFB383A28378
:100C400040815181840F951F8A179B0771F48D9104
:100C50009C911197840F951F029691838083129621
:100C60008D919C911397938382832115310529F4EB
:100C7000F0933302E09332023EC0D9011396FC9305
:100C8000EE9312974D915D91A40FB51FEA17FB07E4
:100C900079F480819181840F951F0296D901119674
:100CA0009C938E938281938113969C938E9312973B
:100CB000E0E0F0E08A819B81009719F0FE01EC01F1
:100CC000F9CFCE01029628813981820F931F20919E
:100CD0003002309131022817390769F4309729F42E
:100CE000109233021092320202C013821282D09309
:100CF0003102C0933002DF91CF9108950F931F937B
:100D0000CF93DF93EC018B01009731F461157105EE
:100D100019F480E090E038C06EE070E081E090E08F
:100D20000E94AF08FC010097A1F380E883830115BE
:100D3000110571F01387028781E883838091340263
:100D400090913502892B21F4F0933502E09334021F
:100D50002097C9F0D187C087838182608383809187
:100D6000360290913702892B71F4F0933702E093A9
:100D700036028091380290913902892B21F4F09348
:100D80003902E0933802CF01DF91CF911F910F918B
:100D90000895A0E0B0E0EFECF6E00C948809FE01C5
:100DA000359661917191AF01809136029091370231
:100DB0000E94DD06E2E00C94A409ACE0B0E0E3EEB2
:100DC000F6E00C9478097C016B018A01FC01178222
:100DD0001682838181FFBDC1CE0101964C01F701CE
:100DE0009381F60193FD859193FF81916F01882393
:100DF00009F4ABC1853239F493FD859193FF81915C
:100E00006F01853229F4B70190E00E94E808E7CF2E
:100E1000512C312C20E02032A0F48B3269F030F4D8
:100E2000803259F0833269F420612CC08D3239F060
:100E3000803339F4216026C02260246023C02860FA
:100E400021C027FD27C030ED380F3A3078F426FF57
:100E500006C0FAE05F9E300D1124532E13C08AE0C5
:100E6000389E300D1124332E20620CC08E3221F4B6
:100E700026FD6BC1206406C08C3611F4206802C0C8
:100E8000883641F4F60193FD859193FF81916F01BE
:100E90008111C1CF982F9F7D9554933028F40C5F1A
:100EA0001F4FFFE3F9830DC0833631F0833771F0B4
:100EB000833509F05BC022C0F801808189830E5F11
:100EC0001F4F44244394512C540115C03801F2E0C3
:100ED0006F0E711CF801A080B18026FF03C0652D44
:100EE00070E002C06FEF7FEFC5012C870E94DD0824
:100EF0002C0183012C852F77222E17C03801F2E0B8
:100F00006F0E711CF801A080B18026FF03C0652D13
:100F100070E002C06FEF7FEFC5012C870E94CB0805
:100F20002C012C852068222E830123FC1BC0832DDD
:100F300090E048165906B0F4B70180E290E00E94B4
:100F4000E8083A94F4CFF50127FC859127FE8191BA
:100F50005F01B70190E00E94E80831103A94F1E097
:100F60004F1A51084114510471F7E5C0843611F04D
:100F7000893639F5F80127FF07C0608171818281C8
:100F800093810C5F1F4F08C060817181882777FDB6
:100F90008095982F0E5F1F4F2F76B22E97FF09C0B6
:100FA00090958095709561957F4F8F4F9F4F2068EA
:100FB000B22E2AE030E0A4010E941A09A82EA81837
:100FC00044C0853729F42F7EB22E2AE030E025C0B8
:100FD000F22FF97FBF2E8F36C1F018F4883579F0E3
:100FE000B4C0803719F0883721F0AFC02F2F2061AF
:100FF000B22EB4FE0DC08B2D8460B82E09C024FF24
:101000000AC09F2F9660B92E06C028E030E005C0C8
:1010100020E130E002C020E132E0F801B7FE07C075
:1010200060817181828193810C5F1F4F06C0608156
:10103000718180E090E00E5F1F4FA4010E941A09A9
:10104000A82EA818FB2DFF77BF2EB6FE0BC02B2DA8
:101050002E7FA51450F4B4FE0AC0B2FC08C02B2D9C
:101060002E7E05C07A2C2B2D03C07A2C01C0752C46
:1010700024FF0DC0FE01EA0DF11D8081803311F4C3
:10108000297E09C022FF06C07394739404C0822F86
:10109000867809F0739423FD13C020FF06C05A2CF4
:1010A000731418F4530C5718732C731468F4B701A5
:1010B00080E290E02C870E94E80873942C85F5CF9D
:1010C000731410F4371801C0312C24FF12C0B7017B
:1010D00080E390E02C870E94E8082C8522FF17C04F
:1010E00021FF03C088E590E002C088E790E0B701E7
:1010F0000CC0822F867859F021FD02C080E201C029
:101100008BE227FD8DE2B70190E00E94E808A5146C
:1011100038F4B70180E390E00E94E8085A94F7CFD2
:10112000AA94F401EA0DF11D8081B70190E00E94BC
:10113000E808A110F5CF332009F451CEB70180E2C1
:1011400090E00E94E8083A94F6CFF70186819781F3
:1011500002C08FEF9FEF2C96E2E10C9494090F935D
:101160001F93CF93DF93869F8001879F100D969FDB
:10117000100D1124C8010E945705EC01009729F0B9
:10118000A80160E070E00E94D608CE01DF91CF9107
:101190001F910F910895FC0105906150704001105E
:1011A000D8F7809590958E0F9F1F0895DC0101C0A0
:1011B0006D9341505040E0F70895FC01615070403C
:1011C00001900110D8F7809590958E0F9F1F08957C
:1011D0000F931F93CF93DF93182F092FEB018B8170
:1011E00081FD03C08FEF9FEF20C082FF10C04E81B2
:1011F0005F812C813D81421753077CF4E881F9819E
:101200009F012F5F3F4F39832883108306C0E885F5
:10121000F985812F0995892B29F72E813F812F5F31
:101220003F4F3F832E83812F902FDF91CF911F91CE
:101230000F910895FA01AA27283051F1203181F148
:10124000E8946F936E7F6E5F7F4F8F4F9F4FAF4FCE
:10125000B1E03ED0B4E03CD0670F781F891F9A1FE1
:10126000A11D680F791F8A1F911DA11D6A0F711D95
:10127000811D911DA11D20D009F468943F912AE0A1
:10128000269F11243019305D3193DEF6CF01089589
:10129000462F4770405D4193B3E00FD0C9F7F6CFBA
:1012A000462F4F70405D4A3318F0495D31FD405282
:1012B000419302D0A9F7EACFB4E0A6959795879518
:1012C00077956795BA95C9F70097610571050895F7
:1012D0009B01AC010A2E06945795479537952795A3
:1012E000BA95C9F7620F731F841F951FA01D08953B
:1012F0002F923F924F925F926F927F928F929F9226
:10130000AF92BF92CF92DF92EF92FF920F931F9313
:10131000CF93DF93CDB7DEB7CA1BDB0B0FB6F894C4
:10132000DEBF0FBECDBF09942A88398848885F8404
:101330006E847D848C849B84AA84B984C884DF8075
:10134000EE80FD800C811B81AA81B981CE0FD11D59
:101350000FB6F894DEBF0FBECDBFED010895F8942F
:02136000FFCFBD
:1013620000003A02200025640A0053746172746915
:101372006E67205352414D20746573742E2E2E00D9
:101382005772697465207068617365206572726F47
:10139200723A206578745F72616D5B2534645D20FA
:1013A2003D2025303258202873686F756C642062A6
:1013B200652025303258290A0052657472696576B3
:1013C200616C207068617365206572726F723A2079
:1013D2006578745F72616D5B2534645D203D202504
:1013E200303258202873686F756C6420626520253E
:1013F200303258290A005352414D207465737420CB
:10140200636F6D706C6574656420776974680A2512
:101412003464206572726F7273696E2077726974B8
:101422006520706861736520616E640A25346420EA
:101432006572726F727320696E207265747269656B
:1014420076616C2070686173650A0A004D41494EED
:10145200204D454E55004869676873636F72657326
:10146200005374617274206E65772067616D650048
:10147200446562756767696E670043616C69627291
:1014820061746500446966666963756C747900000D
:00000001FF
