S00F000047726F757035322E73726563A1
S11300000C94F6000C9413010C9413010C9413013A
S11300100C9413010C9413010C9413010C9413010C
S11300200C9413010C9413010C9413010C941301FC
S11300300C9413010C9413010C9413010C941301EC
S11300400C9413010C9413010C9413010C941301DC
S11300500C9413010C9413010C9413010C941301CC
S11300600C9413010C9413010C9413010C941301BC
S113007000000000005C00000C000C007C287C28C0
S113008058DC68002410480028542840000C000064
S1130090007884008478000054385400107C1000E8
S11300A080400000101010000040000060100C00A0
S11300B038543800487C40004864580044542C00AC
S11300C01C107C005C5424003854240064140C007C
S11300D068542C0048543800004800008048000050
S11300E0102844002828280044281000045408003C
S11300F038445C00781478007C5428003844280084
S11301007C4438007C5444007C140400384474005B
S11301107C107C00447C440020403C007C106C003B
S11301207C4040007C187C0078103C003844380047
S11301307C1408003844B8007C1468004854240037
S1130140047C04007C407C003C603C007C307C00EF
S11301506C106C000C700C0064544C00007C440067
S11301600C106000447C00000804080080808000BB
S113017000040800304878007C48300030484800CB
S113018030487C00306850001078140090A8780043
S11301907C08700050744000808074007C106800FB
S11301A0447C4000781078007808700030483000B3
S11301B0F82810003048F80078100800505828003B
S11301C0083C4800384078003840380078207800EF
S11301D04830480098A07800486858001078840097
S11301E0007C0000847810000804080411241FBE59
S11301F0CFEFD4E0DEBFCDBF11E0A0E0B1E0E4E496
S1130200F0E102C005900D92A835B107D9F721E0BD
S1130210A8E5B1E001C01D92A236B207E1F70E9441
S11302205F020C9420080C940000823069F018F4EA
S1130230813031F014C0833059F0843069F00FC03C
S113024084E0809300140BC085E08093001407C001
S113025086E08093001403C087E0809300142CECA4
S11302608CE091E0215080409040E1F700C0809103
S1130270001408950E944D0208951F93CF93DF93B5
S1130280EC010E94250282FF04C00E94250282FD27
S1130290FCCF60E081E30E940E0268816295660FE4
S11302A0607E82E30E940E026A816F7085E30E9481
S11302B00E028A81882369F010E0FE01E10FF11D2E
S11302C0638186E3810F0E940E021F5F8A811817E3
S11302D0A0F381E80E942002DF91CF911F9108953D
S11302E0BA9888B3847088BB0895CF9382E00E9443
S11302F01501C82F81E00E9415016C2F782F80E032
S113030090E0CF91089580EC870F8F3748F470E028
S11303106F33710594F0603C71058CF480E00895AE
S113032060546F3770F4872F90E08F3391055CF041
S1130330803C910554F480E0089581E0089582E0C2
S1130340089580E0089584E0089583E00895CF93AC
S113035083E00E941501C82F84E00E941501982FA4
S1130360E0E0F0EF3197F1F760E070E08C2FCF918F
S11303700895FF920F931F93CF93DF93CDB7DEB70A
S11303802B970FB6F894DEBF0FBECDBF0E94750148
S1130390062F172F0E948301F82E0E94A7012AE638
S11303A02C83FD820E831F838887998786E08B8345
S11303B081E090E09A8389831F922F9386E091E0F5
S11303C09F938F930E943A05CE0101960E943D01AE
S11303D00F900F900F900F902B960FB6F894DEBFEE
S11303E00FBECDBFDF91CF911F910F91FF90089564
S11303F0C49880EC0E94B503C49A0895CF93C82F83
S1130400C49883E00E94B5038C2F0E94B50380E05A
S11304100E94B5038FB1C49ACF910895CF93DF930F
S1130420D82FC62FC49882E00E94B5038D2F0E9456
S1130430B5038C2F0E94B503C49ADF91CF91089520
S1130440C4980E94B503C49A0895C49880EA0E948F
S1130450B50380E00E94B5038FB1C49A08951F9339
S1130460CF93DF93182FD62FC42FC49885E00E9412
S1130470B503812F0E94B5038D2F0E94B5038C2FE5
S11304800E94B503C49ADF91CF911F910895482F1C
S113049060EE8FE00E942F0208950E94B0030E9434
S11304A0F8014FEF60E680E60E942F024FEF60E60E
S11304B080E70E942F0280E00E944702089585B7DA
S11304C0806885BF64EC73E080EC93E00E94EF04E5
S11304D08FE190E00E94B9030E94BA020E94700169
S11304E00E943A010E94AC0264E182E00E949F02F1
S11304F00E942C030E9470038FE00E94FE0180E69C
S11305000E94FE010E94B901FDCFE0E0F0E192E219
S11305109083808387E0808308950E948502E0E0D1
S1130520F0E181E2808310828FE7808380E890E0AD
S1130530E0E0F2E1108201970097E1F70895E0E02E
S1130540F0E192E29083808387E0808381E280837C
S113055060838FE780830895CF93C0E08C2F0E943F
S11305608D02CF5FC830D1F760E080E00E949F0227
S1130570CF910895E0E0F0E18EEA808381EA808300
S11305808AED808382E1808388EC808388EA80839B
S11305908FE3808385ED808380E8808381E8808396
S11305A080E5808389ED808381E2808380E280839B
S11305B010828BED808380E380838DEA80831082B8
S11305C084EA808386EA80838FEA808380E092E0F5
S11305D0E0E0F2E12FEF208301970097E1F70E941A
S11305E0AC020895CF93DF93FC012081222311F103
S11305F0DC0140E060E050E0C0E0D2E118C0EC91E2
S1130600F0E0EE0FFF1FEE0FFF1FE051F040E20F8E
S1130610F31FE491E8832F5F3F4F2430310579F7CE
S11306204F5FDC01A40FB11D2C91222319F0262F5A
S1130630352FE5CFDF91CF910895CF93DF93EC0170
S113064084E190E00E94C803FC01D183C08313823B
S11306501282DF91CF910895AF92BF92CF92DF9231
S1130660EF92FF920F931F93CF93DF9360E070E0BC
S113067084E191E00E941D03EC01BC018EE191E054
S11306800E941D036C01BE0189E291E00E941D03DA
S11306905C01BE0188E391E00E941D038C01BE0150
S11306A082E491E00E941D037C01BE018CE491E090
S11306B00E941D03BF82AE82D986C8869B878A8723
S11306C0FD86EC861F870E87CE01DF91CF911F91A7
S11306D00F91FF90EF90DF90CF90BF90AF9008956F
S11306E0CF93DF93EC0162E380E00E949F02888154
S11306F099810E94F20262E381E00E949F02EE81EE
S1130700FF81808191810E94F20262E382E00E9473
S11307109F02E885F985808191810E94F20262E35B
S113072083E00E949F02EA85FB85808191810E947B
S1130730F20262E384E00E949F02EC85FD858081E1
S113074091810E94F20262E385E00E949F02EE859D
S1130750FF85808191810E94F202DF91CF910895FB
S113076080EB87BB81E58DB908958FB9779BFECF68
S1130770089590BD89B988E18AB98EE880BD08954D
S11307805D9BFECF8CB908955F9BFECF8CB108951D
S1130790CF93DF938230910510F482E090E0E091F2
S11307A05A01F0915B0120E030E0A0E0B0E0309726
S11307B039F14081518148175907B8F04817590752
S11307C071F482819381109729F013969C938E93F0
S11307D012972CC090935B0180935A0127C0211576
S11307E0310531F04217530718F0A901DB0101C0AC
S11307F0EF019A01BD01DF010280F381E02DD7CF23
S113080021153105F9F0281B390B2430310580F40A
S11308108A819B816115710521F0FB019383828399
S113082004C090935B0180935A01FE01329644C048
S1130830FE01E20FF31F8193919322503109398312
S113084028833AC02091580130915901232B41F457
S113085020910201309103013093590120935801F2
S113086020910001309101012115310541F42DB78A
S11308703EB74091040150910501241B350BE091D2
S11308805801F0915901E217F307A0F42E1B3F0B16
S11308902817390778F0AC014E5F5F4F24173507EE
S11308A048F04E0F5F1F50935901409358018193B4
S11308B0919302C0E0E0F0E0CF01DF91CF91089581
S11308C0CF93DF93009709F487C0FC01329713821A
S11308D01282C0915A01D0915B01209781F420814A
S11308E03181280F391F8091580190915901821745
S11308F0930779F5F0935901E09358016DC0DE0137
S113090020E030E0AE17BF0750F412964D915C9191
S113091013979D014115510509F1DA01F3CFB38312
S1130920A28340815181840F951F8A179B0771F41C
S11309308D919C911197840F951F029691838083CA
S113094012968D919C91139793838283211531057F
S113095029F4F0935B01E0935A013EC0D901139648
S1130960FC93EE9312974D915D91A40FB51FEA1776
S1130970FB0779F480819181840F951F0296D90138
S113098011969C938E938281938113969C938E935C
S11309901297E0E0F0E08A819B81009719F0FE0154
S11309A0EC01F9CFCE01029628813981820F931F81
S11309B020915801309159012817390769F430976B
S11309C029F410925B0110925A0102C01382128220
S11309D0D0935901C0935801DF91CF9108950F939B
S11309E01F93CF93DF93EC018B01009731F46115D2
S11309F0710519F480E090E038C06EE070E081E0A9
S1130A0090E00E942007FC010097A1F380E8838313
S1130A100115110571F01387028781E883838091A2
S1130A205C0190915D01892B21F4F0935D01E093C9
S1130A305C012097C9F0D187C0878381826083835A
S1130A4080915E0190915F01892B71F4F0935F01B5
S1130A50E0935E018091600190916101892B21F402
S1130A60F0936101E0936001CF01DF91CF911F9179
S1130A700F910895A0E0B0E0E0E4F5E00C94F907EC
S1130A80FE01359661917191AF0180915E01909163
S1130A905F010E944E05E2E00C941508ACE0B0E062
S1130AA0E4E5F5E00C94E9077C016B018A01FC01A3
S1130AB017821682838181FFBDC1CE0101964C014C
S1130AC0F7019381F60193FD859193FF81916F0165
S1130AD0882309F4ABC1853239F493FD859193FFE2
S1130AE081916F01853229F4B70190E00E94590782
S1130AF0E7CF512C312C20E02032A0F48B3269F066
S1130B0030F4803259F0833269F420612CC08D3284
S1130B1039F0803339F4216026C02260246023C078
S1130B20286021C027FD27C030ED380F3A3078F413
S1130B3026FF06C0FAE05F9E300D1124532E13C029
S1130B408AE0389E300D1124332E20620CC08E3280
S1130B5021F426FD6BC1206406C08C3611F4206894
S1130B6002C0883641F4F60193FD859193FF81918B
S1130B706F018111C1CF982F9F7D9554933028F434
S1130B800C5F1F4FFFE3F9830DC0833631F08337C9
S1130B9071F0833509F05BC022C0F801808189833C
S1130BA00E5F1F4F44244394512C540115C0380147
S1130BB0F2E06F0E711CF801A080B18026FF03C023
S1130BC0652D70E002C06FEF7FEFC5012C870E9496
S1130BD04E072C0183012C852F77222E17C0380154
S1130BE0F2E06F0E711CF801A080B18026FF03C0F3
S1130BF0652D70E002C06FEF7FEFC5012C870E9466
S1130C003C072C012C852068222E830123FC1BC069
S1130C10832D90E048165906B0F4B70180E290E0C5
S1130C200E9459073A94F4CFF50127FC859127FED9
S1130C3081915F01B70190E00E94590731103A9405
S1130C40F1E04F1A51084114510471F7E5C084369C
S1130C5011F0893639F5F80127FF07C060817181E9
S1130C60828193810C5F1F4F08C060817181882746
S1130C7077FD8095982F0E5F1F4F2F76B22E97FF2A
S1130C8009C090958095709561957F4F8F4F9F4FC8
S1130C902068B22E2AE030E0A4010E948B07A82E1F
S1130CA0A81844C0853729F42F7EB22E2AE030E0FC
S1130CB025C0F22FF97FBF2E8F36C1F018F4883586
S1130CC079F0B4C0803719F0883721F0AFC02F2FE6
S1130CD02061B22EB4FE0DC08B2D8460B82E09C0E5
S1130CE024FF0AC09F2F9660B92E06C028E030E08A
S1130CF005C020E130E002C020E132E0F801B7FE97
S1130D0007C060817181828193810C5F1F4F06C08F
S1130D106081718180E090E00E5F1F4FA4010E940A
S1130D208B07A82EA818FB2DFF77BF2EB6FE0BC08D
S1130D302B2D2E7FA51450F4B4FE0AC0B2FC08C0BB
S1130D402B2D2E7E05C07A2C2B2D03C07A2C01C0AE
S1130D50752C24FF0DC0FE01EA0DF11D8081803346
S1130D6011F4297E09C022FF06C07394739404C051
S1130D70822F867809F0739423FD13C020FF06C0E8
S1130D805A2C731418F4530C5718732C731468F4F6
S1130D90B70180E290E02C870E94590773942C8558
S1130DA0F5CF731410F4371801C0312C24FF12C08E
S1130DB0B70180E390E02C870E9459072C8522FF1D
S1130DC017C021FF03C088E590E002C088E790E0E7
S1130DD0B7010CC0822F867859F021FD02C080E251
S1130DE001C08BE227FD8DE2B70190E00E94590714
S1130DF0A51438F4B70180E390E00E9459075A948F
S1130E00F7CFAA94F401EA0DF11D8081B70190E0B7
S1130E100E945907A110F5CF332009F451CEB70130
S1130E2080E290E00E9459073A94F6CFF701868158
S1130E30978102C08FEF9FEF2C96E2E10C94050896
S1130E400F931F93CF93DF93869F8001879F100D8D
S1130E50969F100D1124C8010E94C803EC0100974D
S1130E6029F0A80160E070E00E944707CE01DF91FD
S1130E70CF911F910F910895FC010590615070402E
S1130E800110D8F7809590958E0F9F1F0895DC016F
S1130E9001C06D9341505040E0F70895FC0161504A
S1130EA0704001900110D8F7809590958E0F9F1F88
S1130EB008950F931F93CF93DF93182F092FEB01FE
S1130EC08B8181FD03C08FEF9FEF20C082FF10C094
S1130ED04E815F812C813D81421753077CF4E88168
S1130EE0F9819F012F5F3F4F39832883108306C008
S1130EF0E885F985812F0995892B29F72E813F8172
S1130F002F5F3F4F3F832E83812F902FDF91CF910F
S1130F101F910F910895FA01AA27283051F1203129
S1130F2081F1E8946F936E7F6E5F7F4F8F4F9F4F79
S1130F30AF4FB1E03ED0B4E03CD0670F781F891FBB
S1130F409A1FA11D680F791F8A1F911DA11D6A0F89
S1130F50711D811D911DA11D20D009F468943F913C
S1130F602AE0269F11243019305D3193DEF6CF013B
S1130F700895462F4770405D4193B3E00FD0C9F701
S1130F80F6CF462F4F70405D4A3318F0495D31FD6E
S1130F904052419302D0A9F7EACFB4E0A6959795C1
S1130FA0879577956795BA95C9F700976105710597
S1130FB008959B01AC010A2E0694579547953795E1
S1130FC02795BA95C9F7620F731F841F951FA01D3B
S1130FD008952F923F924F925F926F927F928F92D9
S1130FE09F92AF92BF92CF92DF92EF92FF920F93B4
S1130FF01F93CF93DF93CDB7DEB7CA1BDB0B0FB6BE
S1131000F894DEBF0FBECDBF09942A88398848887A
S11310105F846E847D848C849B84AA84B984C88410
S1131020DF80EE80FD800C811B81AA81B981CE0F07
S1131030D11D0FB6F894DEBF0FBECDBFED010895EC
S1071040F894FFCF4E
S11310440000620120006D73675F747970653A2053
S113105425690A004D41494E204D454E55004869C5
S1131064676873636F726573005374617274206E7E
S113107465772067616D6500446562756767696EAD
S1131084670043616C6962726174650044696666F1
S10B10946963756C74790000B6
S9030000FC
