S00D00004E6F6465322E737265635F
S113000071C000008EC000008CC000008AC00000D7
S113001088C0000086C0000084C0000082C00000C8
S113002080C000007EC000007CC000007AC00000D8
S113003078C0000076C0000074C0000072C00000E8
S113004070C000009AC100006CC000006AC00000CB
S113005068C0000066C0000064C0000062C0000008
S113006060C000005EC000005CC000005AC0000018
S113007058C0000056C0000054C0000052C0000028
S113008050C000004EC000004CC000004AC0000038
S113009048C0000046C0000044C0000042C0000048
S11300A040C000003EC000003CC000003AC0000058
S11300B038C0000036C0000034C0000032C0000068
S11300C030C000002EC000002CC000002AC0000078
S11300D028C0000026C0000024C0000022C0000088
S11300E020C0000011241FBECFEFD1E2DEBFCDBF80
S11300F000E00CBF12E0A0E0B2E0E0E5F9E000E0CF
S11301000BBF02C007900D92A638B107D9F722E0C1
S1130110A6E8B2E001C01D92AC38B207E1F781D085
S113012015C46ECF9F92AF92BF92CF92DF92EF929F
S1130130FF920F931F93CF93DF93CDB7DEB72B9727
S11301400FB6F894DEBF0FBECDBF7C0182E640D06F
S1130150829586958770C82ED12C85E639D08F700C
S1130160982EA1F08E010C5F1F4F0F2EF6E6AF2ED6
S1130170F02DA80E0F2EF6E6BF2EF02D8B2D28D0D5
S1130180F80181938F01B394BA10F8CF40E061E095
S11301908CE233D0DA82C9829B828BE0FE013196F5
S11301A0D70101900D928A95E1F7C7012B960FB6FE
S11301B0F894DEBF0FBECDBFDF91CF911F910F9199
S11301C0FF90EF90DF90CF90BF90AF909F900895F5
S11301D0CF93C82F289883E0E2D08C2FE0D080E022
S11301E0DED08EB5289ACF910895289880EAD7D08A
S11301F080E0D5D08EB5289A08951F93CF93DF93CE
S1130200182FD62FC42F289885E0C9D0812FC7D0A6
S11302108D2FC5D08C2FC3D0289ADF91CF911F91F9
S11302200895CF93DF93CDB7DEB72B970FB6F8942D
S1130230DEBF0FBECDBF78947ED000E012E00F2E5B
S1130240FEE08F2EF2E09F2EF02D0F2EF8E1AF2E60
S1130250F2E0BF2EF02D0F2EF6E2CF2EF2E0DF2ECD
S1130260F02D0F2EF7E46F2EF2E07F2EF02D0F2EDF
S1130270FEE44F2EF2E05F2EF02D0F2EF5E52F2E2B
S1130280F2E03F2EF02DB1DFF82E1F928F931F93D3
S11302900F938AD00F900F900F900F90F0FE3EC0F6
S11302A0CE0101963FDF8A818F9389818F939F923C
S11302B08F927AD08B811F928F93BF92AF9274D01A
S11302C08C811F928F93DF92CF926ED08D811F927B
S11302D08F93A8E3B2E0BF93AF9366D08E811F9251
S11302E08F937F926F9260D08F811F928F935F92D2
S11302F04F925AD088851F928F933F922F9254D059
S113030089851F928F93A3E6B2E0BF93AF934CD03D
S11303100FB6F894DEBF0FBECDBF03C081E792E0F5
S113032054D09FEFA9E6B8E19150A040B040E1F766
S113033000C00000A8CFE0E8F0E0808182688083FC
S1130340E1E8F0E080818B61808388E893E1909319
S113035087008093860010928500109284008DE0BF
S113036092E09093890080938800EFE6F0E080812A
S11303708260808380E284B908951F920F920FB641
S11303800F9211248F939F9395B180E2892785B9A9
S11303909F918F910F900FBE0F901F9018958EBD57
S11303A00DB407FEFDCF0895CF93DF93CDB7DEB72D
S11303B0FE01369661917191AF018091880290910E
S11303C0890230D0DF91CF9108950F931F93CF937B
S11303D0DF93E0918802F0918902238121FF1BC001
S11303E0EC0100E010E0899160918802709189022B
S11303F0DB011896ED91FC911997882331F019953A
S1130400892B89F30FEF1FEFEECF8AE01995892B23
S113041011F4C80102C08FEF9FEFDF91CF911F91BC
S11304200F9108952F923F924F925F926F927F9215
S11304308F929F92AF92BF92CF92DF92EF92FF92F0
S11304400F931F93CF93DF93CDB7DEB72C970FB6DF
S1130450F894DEBF0FBECDBF7C016B018A01FC01A5
S113046017821682838181FFB0C1CE0101964C01AF
S1130470F7019381F60193FD859193FF81916F01BB
S1130480882309F49EC1853239F493FD859193FF45
S113049081916F01853221F4B70190E0C7D1E8CF93
S11304A0512C312C20E02032A0F48B3269F030F44E
S11304B0803259F0833269F420612CC08D3239F0D6
S11304C0803339F4216026C02260246023C0286070
S11304D021C027FD27C030ED380F3A3078F426FFCD
S11304E006C0FAE05F9E300D1124532E13C08AE03B
S11304F0389E300D1124332E20620CC08E3221F42C
S113050026FD5FC1206406C08C3611F4206802C049
S1130510883641F4F60193FD859193FF81916F0133
S11305208111C1CF982F9F7D9554933028F40C5F8F
S11305301F4FFFE3F9830DC0833631F0833771F029
S1130540833509F057C021C0F801808189830E5F8B
S11305501F4F44244394512C540114C03801F2E039
S11305606F0E711CF801A080B18026FF03C0652DB9
S113057070E002C06FEF7FEFC5012C874CD12C01D6
S113058083012C852F77222E16C03801F2E06F0EDE
S1130590711CF801A080B18026FF03C0652D70E0B6
S11305A002C06FEF7FEFC5012C872AD12C012C8567
S11305B02068222E830123FC19C0832D90E0481665
S11305C05906A0F4B70180E290E030D13A94F5CF17
S11305D0F50127FC859127FE81915F01B70190E029
S11305E025D131103A94F1E04F1A510841145104C5
S11305F079F7DEC0843611F0893631F5F80127FF2A
S113060007C060817181828193810C5F1F4F08C094
S113061060817181882777FD8095982F0E5F1F4F29
S11306202F76B22E97FF09C09095809570956195AD
S11306307F4F8F4F9F4F2068B22E2AE030E0A401F5
S113064027D1A82EA81843C0853729F42F7EB22EAF
S11306502AE030E025C0F22FF97FBF2E8F36C1F09B
S113066018F4883579F0ADC0803719F0883721F057
S1130670A8C02F2F2061B22EB4FE0DC08B2D846034
S1130680B82E09C024FF0AC09F2F9660B92E06C059
S113069028E030E005C020E130E002C020E132E093
S11306A0F801B7FE07C060817181828193810C5F7C
S11306B01F4F06C06081718180E090E00E5F1F4F84
S11306C0A401E6D0A82EA818FB2DFF77BF2EB6FEF6
S11306D00BC02B2D2E7FA51450F4B4FE0AC0B2FC1F
S11306E008C02B2D2E7E05C07A2C2B2D03C07A2C0E
S11306F001C0752C24FF0DC0FE01EA0DF11D80819F
S1130700803311F4297E09C022FF06C073947394C8
S113071004C0822F867809F0739423FD12C020FF51
S113072006C05A2C731418F4530C5718732C7314F2
S113073060F4B70180E290E02C8778D073942C8524
S1130740F6CF731410F4371801C0312C24FF11C0F4
S1130750B70180E390E02C8769D02C8522FF16C076
S113076021FF03C088E590E002C088E790E0B7016C
S11307700CC0822F867851F021FD02C080E201C0B6
S11307808BE227FD8DE2B70190E050D0A51430F440
S1130790B70180E390E04AD05A94F8CFAA94F401C8
S11307A0EA0DF11D8081B70190E040D0A110F6CF91
S11307B0332009F45DCEB70180E290E037D03A945B
S11307C0F7CFF7018681978102C08FEF9FEF2C96B8
S11307D00FB6F894DEBF0FBECDBFDF91CF911F914E
S11307E00F91FF90EF90DF90CF90BF90AF909F90CC
S11307F08F907F906F905F904F903F902F900895CF
S1130800FC010590615070400110D8F780959095D7
S11308108E0F9F1F0895FC016150704001900110DC
S1130820D8F7809590958E0F9F1F08950F931F936F
S1130830CF93DF93182F092FEB018B8181FD03C028
S11308408FEF9FEF20C082FF10C04E815F812C810B
S11308503D81421753077CF4E881F9819F012F5FA2
S11308603F4F39832883108306C0E885F985812F9B
S11308701995892B29F72E813F812F5F3F4F3F83A5
S11308802E83812F902FDF91CF911F910F91089587
S1130890FA01AA27283051F1203181F1E8946F93AD
S11308A06E7F6E5F7F4F8F4F9F4FAF4FB1E03ED053
S11308B0B4E03CD0670F781F891F9A1FA11D680FF1
S11308C0791F8A1F911DA11D6A0F711D811D911D24
S11308D0A11D20D009F468943F912AE0269F112499
S11308E03019305D3193DEF6CF010895462F4770FD
S11308F0405D4193B3E00FD0C9F7F6CF462F4F7058
S1130900405D4A3318F0495D31FD4052419302D0B5
S1130910A9F7EACFB4E0A69597958795779567955B
S1130920BA95C9F700976105710508959B01AC015B
S11309300A2E06945795479537952795BA95C9F782
S1130940620F731F841F951FA01D0895F894FFCF95
S11309505374617475733A20253032780A0049441F
S11309603A20253032780A006C656E6774683A2044
S1130970253032780A004D65737361676520747998
S113098070653A2025730A00446972656374696F5F
S11309906E3A2025690A00583A2025690A00593A16
S11309A02025690A00536C69646572206C3A20251D
S11309B0690A00536C6964657220723A2025690AD9
S11309C0004E6F206D65737361676520696E2062E8
S10909D075666665720005
S9030000FC
