S00D00004E6F6465322E737265635F
S113000071C000008EC000008CC000008AC00000D7
S113001088C0000086C0000084C0000082C00000C8
S113002080C000007EC000007CC000007AC00000D8
S113003078C0000076C0000074C0000072C00000E8
S113004070C000006EC000006CC000006AC00000F8
S113005068C0000066C0000064C0000062C0000008
S113006060C000005EC000005CC000005AC0000018
S113007058C0000056C0000054C0000052C0000028
S11300806CC100004EC000004CC000004AC000001B
S113009048C0000046C0000044C0000042C0000048
S11300A040C000003EC000003CC000003AC0000058
S11300B038C0000036C0000034C0000032C0000068
S11300C030C000002EC000002CC000002AC0000078
S11300D028C0000026C0000024C0000022C0000088
S11300E020C0000011241FBECFEFD1E2DEBFCDBF80
S11300F000E00CBF12E0A0E0B2E0E2E5F7E000E0CF
S11301000BBF02C007900D92A630B107D9F722E0C9
S1130110A6E0B2E001C01D92A031B207E1F7BCD065
S113012016C36ECFACC008959F92AF92BF92CF9288
S1130130DF92EF92FF920F931F93CF93DF93CDB78C
S1130140DEB72B970FB6F894DEBF0FBECDBF7C0190
S113015082E667D0829586958770C82ED12C85E675
S113016060D08F70982EA1F08E010C5F1F4F0F2E60
S1130170F6E6AF2EF02DA80E0F2EF6E6BF2EF02DCC
S11301808B2D4FD0F80181938F01B394BA10F8CF1F
S113019040E061E08CE25AD0DA82C9829B828BE033
S11301A0FE013196D70101900D928A95E1F7C701BE
S11301B02B960FB6F894DEBF0FBECDBFDF91CF9163
S11301C01F910F91FF90EF90DF90CF90BF90AF9071
S11301D09F900895EF92FF920F931F93CF93DF9315
S11301E0CDB7DEB72B970FB6F894DEBF0FBECDBFE9
S11301F03E834F831A3619F4832F942F99D02B966C
S11302000FB6F894DEBF0FBECDBFDF91CF911F9123
S11302100F91FF90EF900895289880ECB5D0289A1C
S11302200895CF93C82F289883E0AED08C2FACD0FC
S113023080E0AAD08EB5289ACF910895289880EAB4
S1130240A3D080E0A1D08EB5289A08951F93CF93B0
S1130250DF93182FD62FC42F289885E095D0812FAF
S113026093D08D2F91D08C2F8FD0289ADF91CF915E
S11302701F910895482F60EE8FE0E8CF08957FD056
S1130280CBDF4FEF60E680E6E1DF4FEF60E680E72B
S1130290DDDF80E0EFCF0895CF93DF93CDB7DEB7F6
S11302A02B970FB6F894DEBF0FBECDBF78943ED027
S11302B06CED71E084ED91E0B8D087E690E069D010
S11302C031DFBCDF80FFFDCFCE0101962DDFE98059
S11302D0FA800B811C812D813E814F81588569856F
S11302E07A858B8577DFEDCFE0E9F0E08081826865
S11302F08083E1E9F0E080818B61808388E893E189
S11303009093970080939600109295001092940019
S113031087E791E09093990080939800E1E7F0E0FB
S113032080818260808388E08DB90895DDCF08954F
S1130330292F30E0ACE2B1E069D02FEF30E040E0AB
S113034050E042D0DA01C9018F519F4FAF4FBF4FE8
S1130350909399008093980008951F920F920FB67E
S11303600F9211248F939F939EB188E089278EB9B1
S11303709F918F910F900FBE0F901F90189587E05B
S113038084B981E58CBD08958EBD0DB407FEFDCF03
S113039008959093C5008093C40088E18093C100C0
S11303A08EE08093C2000895E0ECF0E0908195FF28
S11303B0FDCF8093C6000895E0ECF0E080818823AF
S11303C0ECF78091C6000895A1E21A2EAA1BBB1B6C
S11303D0FD010DC0AA1FBB1FEE1FFF1FA217B3070D
S11303E0E407F50720F0A21BB30BE40BF50B661F23
S11303F0771F881F991F1A9469F7609570958095E7
S113040090959B01AC01BD01CF010895A29FB0015D
S1130410B39FC001A39F700D811D1124911DB29F34
S1130420700D811D1124911D08950F931F93CF9377
S1130430DF93EC018B01009731F46115710519F418
S113044080E090E037C06EE070E081E090E037D06B
S1130450FC010097A9F380E883830115110571F06D
S11304601387028781E883838091060290910702B3
S1130470892B21F4F0930702E09306022097C9F038
S1130480D187C087838182608383809108029091A1
S11304900902892B71F4F0930902E0930802809118
S11304A00A0290910B02892B21F4F0930B02E09342
S11304B00A02CF01DF91CF911F910F9108950F93FD
S11304C01F93CF93DF93869F8001879F100D969F84
S11304D0100D1124C8010DD0EC01009721F0A801E2
S11304E060E070E02DD1CE01DF91CF911F910F918B
S11304F00895CF93DF938230910510F482E090E069
S1130500E0910E02F0910F0220E030E0A0E0B0E0B4
S1130510309739F14081518148175907B8F048178D
S1130520590771F482819381109729F013969C9353
S11305308E9312972CC090930F0280930E0227C0C3
S11305402115310531F04217530718F0A901DB01D9
S113055001C0EF019A01BD01DF010280F381E02DAA
S1130560D7CF21153105F9F0281B390B243031057B
S113057080F48A819B816115710521F0FB019383CD
S1130580828304C090930F0280930E02FE01329680
S113059044C0FE01E20FF31F81939193225031096D
S11305A0398328833AC020910C0230910D02232B09
S11305B041F4209102023091030230930D02209302
S11305C00C0220910002309101022115310541F401
S11305D02DB73EB74091040250910502241B350B00
S11305E0E0910C02F0910D02E217F307A0F42E1B28
S11305F03F0B2817390778F0AC014E5F5F4F241783
S1130600350748F04E0F5F1F50930D0240930C02C4
S11306108193919302C0E0E0F0E0CF01DF91CF91AC
S11306200895CF93DF93009709F487C0FC013297B4
S113063013821282C0910E02D0910F02209781F48E
S113064020813181280F391F80910C0290910D0275
S11306508217930779F5F0930D02E0930C026DC0B5
S1130660DE0120E030E0AE17BF0750F412964D9142
S11306705C9113979D014115510509F1DA01F3CFFE
S1130680B383A28340815181840F951F8A179B07EE
S113069071F48D919C911197840F951F029691830B
S11306A0808312968D919C91139793838283211555
S11306B0310529F4F0930F02E0930E023EC0D901F4
S11306C01396FC93EE9312974D915D91A40FB51F71
S11306D0EA17FB0779F480819181840F951F0296B4
S11306E0D90111969C938E938281938113969C9346
S11306F08E931297E0E0F0E08A819B81009719F0D5
S1130700FE01EC01F9CFCE01029628813981820FD6
S1130710931F20910C0230910D022817390769F4B8
S1130720309729F410920F0210920E0202C0138225
S11307301282D0930D02C0930C02DF91CF910895E1
S1130740DC0101C06D9341505040E0F70895F894E6
S1050750FFCFD5
S10907520000100220006B
S9030000FC
