:1000000071C000008EC000008CC000008AC00000DB
:1000100088C0000086C0000084C0000082C00000CC
:1000200080C000007EC000007CC000007AC00000DC
:1000300078C0000076C0000074C0000072C00000EC
:1000400070C000006EC000006CC000006AC00000FC
:1000500068C0000066C0000064C0000062C000000C
:1000600060C000005EC000005CC000005AC000001C
:1000700058C0000056C0000054C0000052C000002C
:10008000A2C100004EC000004CC000004AC00000E9
:1000900048C0000046C0000044C0000042C000004C
:1000A00040C000003EC000003CC000003AC000005C
:1000B00038C0000036C0000034C0000032C000006C
:1000C00030C000002EC000002CC000002AC000007C
:1000D00028C0000026C0000024C0000022C000008C
:1000E00020C0000011241FBECFEFD1E2DEBFCDBF84
:1000F00000E00CBF12E0A0E0B2E0E8E0FDE000E0CC
:100100000BBF02C007900D92AA30B107D9F722E0C9
:10011000AAE0B2E001C01D92A431B207E1F7D5D048
:10012000F1C56ECFC5C008959F92AF92BF92CF9296
:10013000DF92EF92FF920F931F93CF93DF93CDB790
:10014000DEB72B970FB6F894DEBF0FBECDBF7C0194
:1001500082E680D0829586958770C82ED12C85E660
:1001600079D08F70982EA1F08E010C5F1F4F0F2E4B
:10017000F6E6AF2EF02DA80E0F2EF6E6BF2EF02DD0
:100180008B2D68D0F80181938F01B394BA10F8CF0A
:1001900040E061E08CE273D0DA82C9829B828BE01E
:1001A000FE013196D70101900D928A95E1F7C701C2
:1001B0002B960FB6F894DEBF0FBECDBFDF91CF9167
:1001C0001F910F91FF90EF90DF90CF90BF90AF9075
:1001D0009F900895EF92FF920F931F93CF93DF9319
:1001E000CDB7DEB72B970FB6F894DEBF0FBECDBFED
:1001F0003E834F831A3619F4832F942FCFD02B963A
:100200000FB6F894DEBF0FBECDBFDF91CF911F9127
:100210000F91FF90EF900895EAE7F0E0808187600A
:100220008083ACE7B0E08C9180668C93808180689D
:1002300080830895EAE7F0E0808180648083808194
:1002400086FDFDCF809179000895289880ECD2D06A
:10025000289A0895CF93C82F289883E0CBD08C2F6D
:10026000C9D080E0C7D08EB5289ACF91089528983C
:1002700080EAC0D080E0BED08EB5289A08951F9342
:10028000CF93DF93182FD62FC42F289885E0B2D0B4
:10029000812FB0D08D2FAED08C2FACD0289ADF918B
:1002A000CF911F910895482F60EE8FE0E8CF089519
:1002B0009CD0CBDF4FEF60E680E6E1DF4FEF60E6FA
:1002C00080E7DDDF80E0EFCF0895CF93DF93CDB7F8
:1002D000DEB72B970FB6F894DEBF0FBECDBF789474
:1002E0005BD062E172E08AE092E0D5D087E690E0F0
:1002F00086D018DF91DF9EDF1F928F9386E092E019
:100300009F938F9312D10F900F900F900F900F2EFD
:10031000F6E0CF2EF2E0DF2EF02D8CDF1F928F93D0
:10032000DF92CF9202D1A3DF0F900F900F900F902A
:1003300080FFF3CFCE010196F7DEE980FA800B81D2
:100340001C812D813E814F81588569857A858B85F9
:1003500041DFE3CFE0E9F0E0808182688083E1E97A
:10036000F0E080818B61808388E893E1909397002F
:1003700080939600109295001092940087E791E088
:100380009093990080939800E1E7F0E0808182608B
:10039000808388E08DB90895DDCF0895292F30E05E
:1003A000ACE2B1E069D02FEF30E040E050E042D065
:1003B000DA01C9018F519F4FAF4FBF4F9093990002
:1003C0008093980008951F920F920FB60F921124F8
:1003D0008F939F939EB188E089278EB99F918F91CB
:1003E0000F900FBE0F901F90189587E084B981E59C
:1003F0008CBD08958EBD0DB407FEFDCF089590937A
:10040000C5008093C40088E18093C1008EE0809392
:10041000C2000895E0ECF0E0908195FFFDCF80935D
:10042000C6000895E0ECF0E080818823ECF780912D
:10043000C6000895A1E21A2EAA1BBB1BFD010DC028
:10044000AA1FBB1FEE1FFF1FA217B307E407F50784
:1004500020F0A21BB30BE40BF50B661F771F881F60
:10046000991F1A9469F760957095809590959B01F6
:10047000AC01BD01CF010895A29FB001B39FC0019F
:10048000A39F700D811D1124911DB29F700D811DC0
:100490001124911D08950F931F93CF93DF93EC01C7
:1004A0008B01009731F46115710519F480E090E03B
:1004B00037C06EE070E081E090E036D2FC0100973A
:1004C000A9F380E883830115110571F01387028772
:1004D00081E8838380910A0290910B02892B21F499
:1004E000F0930B02E0930A022097C9F0D187C087EE
:1004F00083818260838380910C0290910D02892B0D
:1005000071F4F0930D02E0930C0280910E02909131
:100510000F02892B21F4F0930F02E0930E02CF011A
:10052000DF91CF911F910F910895CF93DF93CDB7B6
:10053000DEB7FE01369661917191AF0180910C0298
:1005400090910D0203D0DF91CF9108952F923F92A9
:100550004F925F926F927F928F929F92AF92BF92D3
:10056000CF92DF92EF92FF920F931F93CF93DF937F
:10057000CDB7DEB72C970FB6F894DEBF0FBECDBF58
:100580007C016B018A01FC0117821682838181FF45
:10059000B0C1CE0101964C01F7019381F60193FDA4
:1005A000859193FF81916F01882309F49EC1853263
:1005B00039F493FD859193FF81916F01853221F488
:1005C000B70190E00FD3E8CF512C312C20E020323E
:1005D000A0F48B3269F030F4803259F0833269F440
:1005E00020612CC08D3239F0803339F4216026C06F
:1005F0002260246023C0286021C027FD27C030ED81
:10060000380F3A3078F426FF06C0FAE05F9E300DCE
:100610001124532E13C08AE0389E300D1124332E3E
:1006200020620CC08E3221F426FD5FC1206406C01A
:100630008C3611F4206802C0883641F4F60193FD2F
:10064000859193FF81916F018111C1CF982F9F7D7B
:100650009554933028F40C5F1F4FFFE3F9830DC0CE
:10066000833631F0833771F0833509F057C021C0EC
:10067000F801808189830E5F1F4F44244394512CDD
:10068000540114C03801F2E06F0E711CF801A08013
:10069000B18026FF03C0652D70E002C06FEF7FEFD1
:1006A000C5012C8794D22C0183012C852F77222E13
:1006B00016C03801F2E06F0E711CF801A080B18005
:1006C00026FF03C0652D70E002C06FEF7FEFC5010C
:1006D0002C876BD22C012C852068222E830123FCD1
:1006E00019C0832D90E048165906A0F4B70180E2A6
:1006F00090E078D23A94F5CFF50127FC859127FE5A
:1007000081915F01B70190E06DD231103A94F1E030
:100710004F1A51084114510479F7DEC0843611F0A4
:10072000893631F5F80127FF07C060817181828128
:1007300093810C5F1F4F08C060817181882777FD0E
:100740008095982F0E5F1F4F2F76B22E97FF09C00E
:1007500090958095709561957F4F8F4F9F4F206842
:10076000B22E2AE030E0A4016FD2A82EA81843C010
:10077000853729F42F7EB22E2AE030E025C0F22FF3
:10078000F97FBF2E8F36C1F018F4883579F0ADC0EF
:10079000803719F0883721F0A8C02F2F2061B22EA2
:1007A000B4FE0DC08B2D8460B82E09C024FF0AC092
:1007B0009F2F9660B92E06C028E030E005C020E1EA
:1007C00030E002C020E132E0F801B7FE07C06081EE
:1007D0007181828193810C5F1F4F06C0608171819E
:1007E00080E090E00E5F1F4FA4012ED2A82EA81823
:1007F000FB2DFF77BF2EB6FE0BC02B2D2E7FA51431
:1008000050F4B4FE0AC0B2FC08C02B2D2E7E05C0E9
:100810007A2C2B2D03C07A2C01C0752C24FF0DC01F
:10082000FE01EA0DF11D8081803311F4297E09C09B
:1008300022FF06C07394739404C0822F867809F057
:10084000739423FD12C020FF06C05A2C731418F4B1
:10085000530C5718732C731460F4B70180E290E0C6
:100860002C87C0D173942C85F6CF731410F43718ED
:1008700001C0312C24FF11C0B70180E390E02C8728
:10088000B1D12C8522FF16C021FF03C088E590E07E
:1008900002C088E790E0B7010CC0822F867851F043
:1008A00021FD02C080E201C08BE227FD8DE2B7018D
:1008B00090E098D1A51430F4B70180E390E092D194
:1008C0005A94F8CFAA94F401EA0DF11D8081B70182
:1008D00090E088D1A110F6CF332009F45DCEB701A6
:1008E00080E290E07FD13A94F7CFF701868197813B
:1008F00002C08FEF9FEF2C960FB6F894DEBF0FBEAD
:10090000CDBFDF91CF911F910F91FF90EF90DF90BE
:10091000CF90BF90AF909F908F907F906F905F909F
:100920004F903F902F9008950F931F93CF93DF9395
:10093000869F8001879F100D969F100D1124C8017E
:100940000DD0EC01009721F0A80160E070E038D1F3
:10095000CE01DF91CF911F910F910895CF93DF9337
:100960008230910510F482E090E0E0911202F09163
:10097000130220E030E0A0E0B0E0309739F1408190
:10098000518148175907B8F04817590771F4828107
:100990009381109729F013969C938E9312972CC0F5
:1009A000909313028093120227C02115310531F074
:1009B0004217530718F0A901DB0101C0EF019A01AA
:1009C000BD01DF010280F381E02DD7CF2115310574
:1009D000F9F0281B390B2430310580F48A819B8182
:1009E0006115710521F0FB019383828304C090930C
:1009F000130280931202FE01329644C0FE01E20F00
:100A0000F31F8193919322503109398328833AC08F
:100A10002091100230911102232B41F42091020207
:100A200030910302309311022093100220910002B2
:100A3000309101022115310541F42DB73EB74091A7
:100A4000040250910502241B350BE0911002F09135
:100A50001102E217F307A0F42E1B3F0B28173907EA
:100A600078F0AC014E5F5F4F2417350748F04E0F0A
:100A70005F1F50931102409310028193919302C023
:100A8000E0E0F0E0CF01DF91CF910895CF93DF93C5
:100A9000009709F487C0FC01329713821282C0913B
:100AA0001202D0911302209781F420813181280F06
:100AB000391F80911002909111028217930779F5E6
:100AC000F0931102E09310026DC0DE0120E030E0EF
:100AD000AE17BF0750F412964D915C9113979D018C
:100AE0004115510509F1DA01F3CFB383A2834081A7
:100AF0005181840F951F8A179B0771F48D919C91EA
:100B00001197840F951F02969183808312968D9181
:100B10009C911397938382832115310529F4F093D7
:100B20001302E09312023EC0D9011396FC93EE9398
:100B300012974D915D91A40FB51FEA17FB0779F449
:100B400080819181840F951F0296D90111969C9303
:100B50008E938281938113969C938E931297E0E0FB
:100B6000F0E08A819B81009719F0FE01EC01F9CF3A
:100B7000CE01029628813981820F931F20911002A5
:100B8000309111022817390769F4309729F410922F
:100B900013021092120202C013821282D093110229
:100BA000C0931002DF91CF910895FC010590615030
:100BB00070400110D8F7809590958E0F9F1F089573
:100BC000DC0101C06D9341505040E0F70895FC01F5
:100BD0006150704001900110D8F7809590958E0F6C
:100BE0009F1F08950F931F93CF93DF93182F092F03
:100BF000EB018B8181FD03C08FEF9FEF20C082FF4F
:100C000010C04E815F812C813D81421753077CF4D7
:100C1000E881F9819F012F5F3F4F3983288310833B
:100C200006C0E885F985812F1995892B29F72E8132
:100C30003F812F5F3F4F3F832E83812F902FDF9186
:100C4000CF911F910F910895FA01AA27283051F1F1
:100C5000203181F1E8946F936E7F6E5F7F4F8F4FED
:100C60009F4FAF4FB1E03ED0B4E03CD0670F781F4C
:100C7000891F9A1FA11D680F791F8A1F911DA11D31
:100C80006A0F711D811D911DA11D20D009F468946A
:100C90003F912AE0269F11243019305D3193DEF612
:100CA000CF010895462F4770405D4193B3E00FD0C8
:100CB000C9F7F6CF462F4F70405D4A3318F0495DB3
:100CC00031FD4052419302D0A9F7EACFB4E0A69596
:100CD0009795879577956795BA95C9F700976105B8
:100CE000710508959B01AC010A2E0694579547950E
:100CF00037952795BA95C9F7620F731F841F951F03
:080D0000A01D0895F894FFCF37
:0A0D080000001402200025640A0018
:00000001FF
